S00E00005472616365722E73726563B5
S1130000FDC0000018C1000016C1000014C10000AA
S113001012C1000010C100000EC100000CC100009C
S11300200AC1000008C1000006C1000004C10000AC
S113003002C1000000C1000082C70000A9C700007F
S1130040D0C70000F7C700000C9443080C946C0858
S11300500C9495080C94BE080C94E7080C941009B1
S1130060EAC00000E8C00000E6C00000E4C00000F0
S1130070E2C00000E0C00000DEC00000DCC0000000
S1130080DAC00000D8C00000D6C00000D4C0000010
S1130090D2C00000D0C00000CEC00000CCC0000020
S11300A0CAC00000C8C00000C6C00000C4C0000030
S11300B0C2C00000C0C00000BEC000000C94D30A3F
S11300C00C94FC0A0C94250B0C944E0B0C94770B9B
S11300D00C94A00BB0C00000AEC00000ACC0000087
S11300E0AAC00000A8C00000A6C00000A4C0000070
S11300F0A2C00000A0C000009EC000009CC0000080
S11301009AC0000098C0000096C0000094C000008F
S113011092C0000090C000008EC000008CC000009F
S11301208AC0000088C0000086C0000084C00000AF
S113013082C000000C9439090C9462090C948B0958
S11301400C94B4090C94DD090C94060A0C942F0A3F
S11301500C94580A0C94810A0C94AA0A6CC00000EE
S11301606AC0000068C0000066C0000064C00000EF
S113017062C0000060C000005EC000005CC00000FF
S11301805AC0000058C0000056C0000054C000000F
S113019052C0000050C000004EC000004CC000001F
S11301A04AC0000048C0000046C0000044C000002F
S11301B042C0000040C000003EC000003CC000003F
S11301C03AC0000038C0000036C0000034C000004F
S11301D032C0000030C000002EC000002CC000005F
S11301E02AC0000028C0000026C0000024C000006F
S11301F022C0000020C000001EC0000011241FBE49
S1130200CFEFDFE2DEBFCDBF10E2A0E0B0E2E2E07C
S1130210F8E202C005900D92AE30B107D9F720E2A2
S1130220AEE0B0E201C01D92A93AB207E1F70E9424
S11302303A100C94FF13E4CEA4E0B0E0E2E2F1E063
S11302400C94D0137C016A01FC018081823008F493
S11302504AC1FB019081923008F442C1843079F4A0
S1130260943009F040C1F7019181FB018181981715
S113027009F439C1A6E0EA2EA0E2FA2E34C1943082
S113028009F42EC1923091F4823009F02CC188E037
S1130290F701DA0101900D928A95E1F7FB01818162
S11302A0F70191818923FA0181831CC1823009F409
S11302B017C1F70182819381FB01A281B381F70108
S11302C00481158126813781FB0184809580A68075
S11302D0B780FC01EA1BFB0BAF01F7FF04C0442706
S11302E055274E1B5F0B403251050CF074C01E168F
S11302F01F06B4F524013501042E04C076946794D6
S1130300579447940A94D2F749825A826B827C822A
S1130310412C512C3201439404C0440C551C661CDE
S1130320771C4A95D2F741E0441A510861087108D4
S1130330482059206A207B20812C912C54018394DD
S113034045284628472819F4812C912C54014980CA
S11303505A806B807C8084289528A628B72846C0BC
S1130360EF2B09F443C0840F951F28013901042E93
S113037004C076946794579447940A94D2F74982B8
S11303805A826B827C82412C512C3201439404C0EA
S1130390440C551C661C771C4A95D2F741E0441A5C
S11303A0510861087108402251226222732201E03F
S11303B010E020E030E045284628472819F400E002
S11303C010E0980149805A806B807C8004291529AB
S11303D0262937290BC0A817B90724F4812C912C9E
S11303E0540104C0CD0100E010E09801F7014181FF
S11303F0FB015181451709F446C0442349F0240107
S11304003501401A510A620A730A9301820104C039
S1130410081919092A093B0937FD05C0F60111829B
S1130420828393830CC041E0F601418382839383EA
S113043030952095109501951F4F2F4F3F4F048302
S11304401583268337830EC0880F991FAA1FBB1FED
S1130450F60184839583A683B78382819381019770
S113046082839383F60184819581A681B781AC014F
S1130470BD0141505109610971094F3F5F4F6F4FF1
S11304807F4310F30CC0F601418382839383080DEC
S1130490191D2A1D3B1D048315832683378383E09E
S11304A0F6018083448155816681778177FF1AC084
S11304B0DB01CA0181709927AA27BB277695679526
S11304C057954795842B952BA62BB72B848395831F
S11304D0A683B7838281938101968283938302C02A
S11304E07B0101C07601C7012496E0E10C94E91375
S11304F0A0E2B0E0EEE7F2E00C94DE136D8F7E8FA5
S11305008F8F98A3298F3A8F4B8F5C8FBE016F5EBC
S11305107F4FCE014D96EDD2BE01675F7F4FCE0176
S11305204996E7D2AE014F5F5F4FBE01675F7F4FD1
S1130530CE01419681DE13D2A096E2E00C94F7132B
S1130540A0E2B0E0E6EAF2E00C94DE136D8F7E8F59
S11305508F8F98A3298F3A8F4B8F5C8FBE016F5E6C
S11305607F4FCE014D96C5D2BE01675F7F4FCE014E
S11305704996BFD28A8591E089278A87AE014F5F69
S11305805F4FBE01675F7F4FCE01419655DEE7D1D5
S1130590A096E2E00C94F713A0E2B0E0E2EDF2E002
S11305A00C94D0136D8F7E8F8F8F98A3298F3A8FE1
S11305B04B8F5C8FBE016F5E7F4FCE014D9699D2FB
S11305C0BE01675F7F4FCE01499693D299899230DD
S11305D008F412C08985823008F41AC0943021F4DA
S11305E0823009F4B4C008C0843021F4923009F494
S11305F0AEC00EC0923051F481E02A899A85291345
S113060001C080E08A8BCE014196A3C0823051F4B0
S113061081E02A899A85291301C080E08A87CE0166
S1130620099697C08D889E88AF88B88C0D851E85E5
S11306302F853889E0E2F0E080E090E0DC01C12C15
S1130640D12C760140E050E0BA0180FE18C0400F82
S1130650511F621F731F8C0D9D1DAE1DBF1D412CAC
S1130660512C32014394401751076207730718F065
S1130670412C512C3201840D951DA61DB71DCC0CA7
S1130680DD1CEE1CFF1C37FF02C06894C0F8000F8D
S1130690111F221F331FB694A79497948794319700
S11306A0A1F62B893C89EB85FC852E0F3F1F2E5F1D
S11306B03F4F2B833C8321E0EA893A85E31301C051
S11306C020E02A83EB81FC810CC080FF05C0769575
S11306D06795579547957068B695A79597958795AB
S11306E03196B7FDF2CF9F010CC0880F991FAA1F46
S11306F0BB1F77FD8160440F551F661F771F215074
S113070031090097A105E0E4BE0778F32B833C830D
S11307108C019D010F7711272227332700341105FF
S11307202105310559F487FD09C0452B462B472B7C
S113073029F0805C9F4FAF4FBF4F80788D839E839D
S1130740AF83B88783E08983CE01019602C086E037
S113075090E205D1A096E0E10C94E913A8E1B0E0A1
S1130760E4EBF3E00C94DE136D8B7E8B8F8B988F10
S1130770298B3A8B4B8B5C8BBE01675F7F4FCE011D
S11307804596B7D1BE016F5F7F4FCE014196B1D17F
S11307908985823050F08981823038F0BE016F5FE4
S11307A07F4FCE01099614D201C08FEF6896E2E024
S11307B00C94F713A8E1B0E0E0EEF3E00C94DE1340
S11307C06D8B7E8B8F8B988F298B3A8B4B8B5C8BAD
S11307D0BE01675F7F4FCE0145968BD1BE016F5F2F
S11307E07F4FCE01419685D18985823050F0898131
S11307F0823038F0BE016F5F7F4FCE010996E8D199
S113080001C081E06896E2E00C94F713A8E0B0E040
S1130810ECE0F4E00C94DC1323E029838B019C01CD
S1130820002737FD0395112722273327402F0A83FA
S1130830611571058105910519F482E0898335C03C
S11308402EE130E02B833C83442371F06115710564
S1130850810520E8920769F1002711279801061BFA
S1130860170B280B390B02C08B019C01C901B8017D
S11308700E94B5130197181619062CF00D831E83D8
S11308802F83388712C0082E04C0000F111F221FA7
S1130890331F0A94D2F70D831E832F8338872EE1EA
S11308A030E0281B390B2B833C83CE01019657D0B3
S11308B004C060E070E080E09FEC2896E4E00C94D3
S11308C0F513ACE0B0E0E7E6F4E00C94DC136987E0
S11308D07A878B879C87BE016F5F7F4FCE01099615
S11308E008D18981823091F1823080F1843041F4E1
S11308F08A81882331F100E010E020E030E829C04B
S11309002B813C8137FD22C02F3131058CF78EE1DC
S113091090E0821B930B0D811E812F81388504C0CA
S113092036952795179507958A95D2F78A81882356
S113093081F030952095109501951F4F2F4F3F4F13
S113094008C00FEF1FEF2FEF3FE703C000E010E0F8
S11309509801B801C9012C96E4E00C94F5130F93A7
S11309601F93CF93DF93DC0114964D915D916D91AC
S11309707C9117971196EC9111978C91823020F409
S113098060618FEF90E0A6C0843009F49EC082308D
S113099009F495C0411551056105710509F492C02A
S11309A012962D913C91139722388FEF38070CF053
S11309B058C0C2E8DFEFC21BD30BCA31D1056CF5B6
S11309C08A019B010C2E04C036952795179507952F
S11309D00A94D2F781E090E0A0E0B0E00C2E04C0CD
S11309E0880F991FAA1FBB1F0A94D2F70197A10968
S11309F0B10984239523A623B72341E050E060E0A6
S1130A0070E0892B8A2B8B2B19F440E050E0BA015B
S1130A10402B512B622B732B03C040E050E0BA01F2
S1130A20DB01CA018F779927AA27BB278034910558
S1130A30A105B10539F447FF09C0405C5F4F6F4F12
S1130A407F4F04C0415C5F4F6F4F7F4F81E090E068
S1130A5041155105610520E4720748F580E090E0F6
S1130A6026C0203831058CF5DB01CA018F77992720
S1130A70AA27BB2780349105A105B10539F447FFA6
S1130A8009C0405C5F4F6F4F7F4F04C0415C5F4FB4
S1130A906F4F7F4F77FD04C0C90181589F4F07C036
S1130AA07695679557954795C90180589F4F97E06C
S1130AB076956795579547959A95D1F70BC080E041
S1130AC090E005C080E090E005C08FEF90E040E04A
S1130AD050E0BA01982F9695E0FB97F9362F80FBEA
S1130AE037F9642F752F832FDF91CF911F910F91C9
S1130AF00895CF92DF92EF92DC01FB01CC90119626
S1130B00DC90119712968C9112973FE7E32EE8221E
S1130B106E2DA60170E0982F991F9927991F13969F
S1130B202C91822F880F892B90E027FB222720F914
S1130B302183009729F5411551056105710511F4CB
S1130B4082E027C082E89FEF8283938327E0440FEB
S1130B50551F661F771F2A95D1F783E0808309C04C
S1130B60440F551F661F771F8281938101978283EB
S1130B70938341155105610580E4780788F320C00B
S1130B808F3F910579F4411551056105710519F4FB
S1130B9084E0808319C0E4FE03C081E0808310C038
S1130BA010820EC08F5791098283938383E08083E0
S1130BB087E0440F551F661F771F8A95D1F770642D
S1130BC04483558366837783EF90DF90CF900895B5
S1130BD0CF93FC01DB019081923008F452C08C91D8
S1130BE0823008F44EC0943071F4843039F4119694
S1130BF02C9130E08181281B310948C081818823F0
S1130C0009F43FC03BC0843029F411968C918111C2
S1130C1038C034C0923019F48230B9F735C082300C
S1130C2069F3C18111968C911197C8131DC022815B
S1130C30338112968D919C911397821793070CF42C
S1130C4013C0281739070CF417C0448155816681F5
S1130C50778114968D919D910D90BC91A02D841750
S1130C609507A607B70718F4C11108C00AC04817AA
S1130C7059076A077B0740F4C11103C02FEF3FEF08
S1130C8005C021E030E002C020E030E0C901CF918E
S1130C90089508958FEF809370008093710080937E
S1130CA07200809373008093740080937500809326
S1130CB076008FB7F894E0E5F0E09081926090833D
S1130CC08FBF818181FFFDCF61E080E490E027D177
S1130CD08FB7F894E0E5F0E090819E7F90838FBF1A
S1130CE008952FB7F894FC01E059FF4F6095808177
S1130CF0682360832FBF08952FB7F894FC01E0594F
S1130D00FF4F8081682B60832FBF08958115924027
S1130D1061F480910E20982F9F5F90930E20811193
S1130D2004C062E081E090E0DCCF08958115924038
S1130D3059F480910E20815080930E20811104C0BB
S1130D4062E081E090E0D8CF08951F93CF93DF93C2
S1130D50EC011FB7F894DADF8881816088831FBFB4
S1130D608FB7F894ECE4F0E290819F5F90838FBF9B
S1130D70DF91CF911F910895FF920F931F93CF930B
S1130D80DF93EB018115924071F561E270E082E03E
S1130D90CCD0182F60E270E082E0C7D0312F20E081
S1130DA08901082BFFB6F89480E092E0AFDFE0E021
S1130DB0F2E0208182E08083048715878D819E8103
S1130DC0808F918F8A8182838C8184838B818383BA
S1130DD089818183822F81709881892B808380E02F
S1130DE092E0A4DFFFBEDF91CF911F910F91FF909E
S1130DF00895FF920F931F93CF93DF93EC018B0120
S1130E00FFB6F89483DF8881807CF8018083888D25
S1130E10998D858396838A8182838C8184838B8157
S1130E20838389818183CE0181DFFFBEDF91CF91EE
S1130E301F910F91FF900895CF92DF92EF92FF924E
S1130E400F931F93CF93DF937C01D62E8A01862FB5
S1130E50837029F4962F9695969582E002C0962F7A
S1130E6080E090FF8F5FE701A09698E0899FC00D16
S1130E70D11D1124CFB6F894C70148DFF801808151
S1130E80888382818A8381818983D0FE02C08381A1
S1130E908E83C7014BDFCFBEDF91CF911F910F919E
S1130EA0FF90EF90DF90CF900895CF92DF92EF9272
S1130EB0FF920F931F93CF93DF937C01D62EEA0109
S1130EC0862F837029F4962F9695969582E002C01A
S1130ED0962F80E090FF8F5F8701005E1F4F98E0A0
S1130EE0899F000D111D1124CFB6F894C7010EDFA0
S1130EF0F8018081888382818A8381818983D0FEFD
S1130F0002C086818B83C70111DFCFBEDF91CF91F1
S1130F101F910F91FF90EF90DF90CF9008951BBE2B
S1130F20FC0128ED24BF608308954091CA01E62F97
S1130F30F72F8093CA0184914093CA0108951F92A8
S1130F400F920FB60F9211242F933F934F935F93F9
S1130F506F937F938F939F93AF93BF93EF93FF937D
S1130F60E0910F20F0911020309709F00995FF913E
S1130F70EF91BF91AF919F918F917F916F915F910D
S1130F804F913F912F910F900FBE0F901F90189586
S1130F901F920F920FB60F9211242F933F934F93EA
S1130FA05F936F937F938F939F93AF93BF93EF93CD
S1130FB0FF93E0911120F0911220309709F00995E8
S1130FC0FF91EF91BF91AF919F918F917F916F911D
S1130FD05F914F913F912F910F900FBE0F901F90F3
S1130FE018951F920F920FB60F9211242F933F93CF
S1130FF04F935F936F937F938F939F93AF93BF931D
S1131000EF93FF93E0911320F0911420309709F0AF
S11310100995FF91EF91BF91AF919F918F917F912E
S11310206F915F914F913F912F910F900FBE0F9051
S11310301F9018951F920F920FB60F9211242F93A1
S11310403F934F935F936F937F938F939F93AF934C
S1131050BF93EF93FF93E0911520F0911620309702
S113106009F00995FF91EF91BF91AF919F918F91F5
S11310707F916F915F914F913F912F910F900FBE90
S11310800F901F9018951F920F920FB60F92112474
S11310902F933F934F935F936F937F938F939F937C
S11310A0AF93BF93EF93FF93E0911720F091182033
S11310B0309709F00995FF91EF91BF91AF919F91FE
S11310C08F917F916F915F914F913F912F910F90ED
S11310D00FBE0F901F9018951F920F920FB60F928C
S11310E011242F933F934F935F936F937F938F9329
S11310F09F93AF93BF93EF93FF93E0911920F091E7
S11311001A20309709F00995FF91EF91BF91AF91A3
S11311109F918F917F916F915F914F913F912F910B
S11311200F900FBE0F901F9018951F920F920FB63D
S11311300F9211242F933F934F935F936F937F9359
S11311408F939F93AF93BF93EF93FF93E0911B20F3
S1131150F0911C20309709F00995FF91EF91BF9110
S1131160AF919F918F917F916F915F914F913F913B
S11311702F910F900FBE0F901F9018951F920F92F2
S11311800FB60F9211242F933F934F935F936F9356
S11311907F938F939F93AF93BF93EF93FF93E091CC
S11311A01D20F0911E20309709F00995FF91EF91D1
S11311B0BF91AF919F918F917F916F915F914F916B
S11311C03F912F910F900FBE0F901F9018951F9273
S11311D00F920FB60F9211242F933F934F935F9367
S11311E06F937F938F939F93AF93BF93EF93FF93EB
S11311F0E0911F20F0912020309709F00995FF918C
S1131200EF91BF91AF919F918F917F916F915F917A
S11312104F913F912F910F900FBE0F901F901895F3
S11312201F920F920FB60F9211242F933F934F9357
S11312305F936F937F938F939F93AF93BF93EF933A
S1131240FF93E0912120F0912220309709F0099535
S1131250FF91EF91BF91AF919F918F917F916F918A
S11312605F914F913F912F910F900FBE0F901F9060
S113127018951F920F920FB60F9211242F933F933C
S11312804F935F936F937F938F939F93AF93BF938A
S1131290EF93FF93E0912320F0912420309709F0FD
S11312A00995FF91EF91BF91AF919F918F917F919C
S11312B06F915F914F913F912F910F900FBE0F90BF
S11312C01F9018951F920F920FB60F9211242F930F
S11312D03F934F935F936F937F938F939F93AF93BA
S11312E0BF93EF93FF93E0912520F0912620309750
S11312F009F00995FF91EF91BF91AF919F918F9163
S11313007F916F915F914F913F912F910F900FBEFD
S11313100F901F9018951F920F920FB60F921124E1
S11313202F933F934F935F936F937F938F939F93E9
S1131330AF93BF93EF93FF93E0912720F091282080
S1131340309709F00995FF91EF91BF91AF919F916B
S11313508F917F916F915F914F913F912F910F905A
S11313600FBE0F901F9018951F920F920FB60F92F9
S113137011242F933F934F935F936F937F938F9396
S11313809F93AF93BF93EF93FF93E0912920F09144
S11313902A20309709F00995FF91EF91BF91AF9101
S11313A09F918F917F916F915F914F913F912F9179
S11313B00F900FBE0F901F9018951F920F920FB6AB
S11313C00F9211242F933F934F935F936F937F93C7
S11313D08F939F93AF93BF93EF93FF93E0912B2051
S11313E0F0912C20309709F00995FF91EF91BF916E
S11313F0AF919F918F917F916F915F914F913F91A9
S11314002F910F900FBE0F901F9018951F920F925F
S11314100FB60F9211242F933F934F935F936F93C3
S11314207F938F939F93AF93BF93EF93FF93E09139
S11314302D20F0912E20309709F00995FF91EF911E
S1131440BF91AF919F918F917F916F915F914F91D8
S11314503F912F910F900FBE0F901F9018951F92E0
S11314600F920FB60F9211242F933F934F935F93D4
S11314706F937F938F939F93AF93BF93EF93FF9358
S1131480E0912F20F0913020309709F00995FF91D9
S1131490EF91BF91AF919F918F917F916F915F91E8
S11314A04F913F912F910F900FBE0F901F90189561
S11314B01F920F920FB60F9211242F933F934F93C5
S11314C05F936F937F938F939F93AF93BF93EF93A8
S11314D0FF93E0913120F0913220309709F0099583
S11314E0FF91EF91BF91AF919F918F917F916F91F8
S11314F05F914F913F912F910F900FBE0F901F90CE
S113150018951F920F920FB60F9211242F933F93A9
S11315104F935F936F937F938F939F93AF93BF93F7
S1131520EF93FF93E0913320F0913420309709F04A
S11315300995FF91EF91BF91AF919F918F917F9109
S11315406F915F914F913F912F910F900FBE0F902C
S11315501F9018951F920F920FB60F9211242F937C
S11315603F934F935F936F937F938F939F93AF9327
S1131570BF93EF93FF93E0913520F091362030979D
S113158009F00995FF91EF91BF91AF919F918F91D0
S11315907F916F915F914F913F912F910F900FBE6B
S11315A00F901F9018951F920F920FB60F9211244F
S11315B02F933F934F935F936F937F938F939F9357
S11315C0AF93BF93EF93FF93E0913720F0913820CE
S11315D0309709F00995FF91EF91BF91AF919F91D9
S11315E08F917F916F915F914F913F912F910F90C8
S11315F00FBE0F901F9018951F920F920FB60F9267
S113160011242F933F934F935F936F937F938F9303
S11316109F93AF93BF93EF93FF93E0913920F091A1
S11316203A20309709F00995FF91EF91BF91AF915E
S11316309F918F917F916F915F914F913F912F91E6
S11316400F900FBE0F901F9018951F920F920FB618
S11316500F9211242F933F934F935F936F937F9334
S11316608F939F93AF93BF93EF93FF93E0913B20AE
S1131670F0913C20309709F00995FF91EF91BF91CB
S1131680AF919F918F917F916F915F914F913F9116
S11316902F910F900FBE0F901F9018951F920F92CD
S11316A00FB60F9211242F933F934F935F936F9331
S11316B07F938F939F93AF93BF93EF93FF93E091A7
S11316C03D20F0913E20309709F00995FF91EF916C
S11316D0BF91AF919F918F917F916F915F914F9146
S11316E03F912F910F900FBE0F901F9018951F924E
S11316F00F920FB60F9211242F933F934F935F9342
S11317006F937F938F939F93AF93BF93EF93FF93C5
S1131710E0913F20F0914020309709F00995FF9126
S1131720EF91BF91AF919F918F917F916F915F9155
S11317304F913F912F910F900FBE0F901F901895CE
S11317401F920F920FB60F9211242F933F934F9332
S11317505F936F937F938F939F93AF93BF93EF9315
S1131760FF93E0914120F0914220309709F00995D0
S1131770FF91EF91BF91AF919F918F917F916F9165
S11317805F914F913F912F910F900FBE0F901F903B
S11317901895CF93CFB7F894811528E0920749F4B0
S11317A061E083E090E09DDA64E083E090E099DA20
S11317B035C0803428E0920749F462E083E090E089
S11317C090DA64E083E090E08CDA28C0811529E0A7
S11317D0920749F461E084E090E083DA64E084E015
S11317E090E07FDA1BC0803429E0920749F462E07C
S11317F084E090E076DA64E084E090E072DA0EC08F
S113180081159A4049F461E085E090E06ADA64E089
S113181085E090E066DA02C0CFBF09C08FB7F894C4
S1131820ECE4F0E290819F5F90838FBFCFBFCF91B4
S11318300895811528E0920729F460930F2070938E
S113184010200895803428E0920729F460931B2027
S113185070931C200895811529E0920729F4609360
S11318602320709324200895803429E0920729F4DA
S113187060932F2070933020089581159A4021F4AD
S113188060933720709338200895CF92DF92EF92BF
S1131890FF92CF93DF93EC016B01E12CF12C60E01C
S11318A078E488EE91E0A70196011DD7CA01B90139
S11318B02FEF3FEF40E050E016D72115310539F402
S11318C081E090E08E839F8321E030E039C02230B4
S11318D0310538F482E090E08E839F8322E030E08B
S11318E02FC02430310538F483E090E08E839F8349
S11318F024E030E025C02830310538F484E090E05D
S11319008E839F8328E030E01BC02034310538F4F7
S113191085E090E08E839F8320E430E011C02F3F68
S1131920310509F038F486E090E08E839F8320E04F
S113193031E006C087E090E08E839F8320E034E0AE
S113194040E050E060E078E488EE91E0CCD6CA0153
S1131950B901A7019601C7D62887398724363105EE
S113196020F41E821F8218861986DF91CF91FF9082
S1131970EF90DF90CF9008950F931F93CF93DF9351
S1131980EC01890162307105E1F140F461157105E2
S113199071F06130710509F072C01EC063307105C9
S11319A009F444C06430710509F069C054C080E092
S11319B098E088839983E0E4F6E0A0819A012150BD
S11319C0310961E070E0CB0102C0880F991F2A95AC
S11319D0E2F78A2B808353C080E498E0888399835C
S11319E0E0E4F6E0A0819A012D5F3F4F61E070E0F2
S11319F0CB0102C0880F991F2A95E2F78A2B8083B6
S1131A003EC080E099E088839983E0E6F6E0A08117
S1131A109A012150310961E070E0CB0102C0880FC6
S1131A20991F2A95E2F78A2B808329C080E499E0E4
S1131A3088839983E0E6F6E0A0819A012D5F3F4F09
S1131A4061E070E0CB0102C0880F991F2A95E2F78C
S1131A508A2B808314C080E09AE088839983E0E82D
S1131A60F6E0A0819A012150310961E070E0CB01D8
S1131A7002C0880F991F2A95E2F78A2B80834A8334
S1131A805B834230510589F020F441305105D9F48B
S1131A9007C04330510571F044305105A1F40FC023
S1131AA080E190E08C839D830EC080E290E08C8383
S1131AB09D8309C080E490E08C839D8304C080E80A
S1131AC090E08C839D838881998163DEE881F9812C
S1131AD08181887F83608183188619861E821F8294
S1131AE0E881F9818081807F8083B801CE01CDDED9
S1131AF0DF91CF911F910F910895CF93DF93EC0164
S1131B00A885B985262F30E010D624E630E040E0E1
S1131B1050E0E9D58A819B81E881F981E6FD19C00D
S1131B208230910569F018F40197F1F406C083300E
S1131B30910549F00497C1F409C020AF31AF14C036
S1131B4022AF33AF11C024AF35AF0EC026AF37AFCD
S1131B500BC08130910519F0029731F403C020AF16
S1131B6031AF02C022AF33AF88859985E881F9810E
S1131B7086A397A38C819D81E881F981E6FD04C049
S1131B809181892B818305C0218180739927822BC0
S1131B908183E881F9818081807F9E81892B808384
S1131BA0DF91CF910895AF92BF92CF92DF92EF92DF
S1131BB0FF920F931F93CF93DF93EC01C61BD70BB8
S1131BC0BE01882777FD8095982F0E9406046B013B
S1131BD07C0120918F203091902040919120509150
S1131BE092200E94CC02A62EB72E082F192F2091E6
S1131BF05320309154204091552050915620C701D4
S1131C00B6010E94CC022091472030914820409197
S1131C10492050914A200E947802262F372F462FC0
S1131C20572F682F792F4093472050934820609373
S1131C30492070934A20482F592F6A2D7B2D802FDD
S1131C40912F0E9478026B017C0180914320909136
S1131C504420BE01681B790B882777FD8095982F57
S1131C600E940604209173203091742040917520C5
S1131C70509176200E94CC029B01AC01C701B601B1
S1131C800E94A00220E030E048EC51E40E94CC0223
S1131C90E62EF72E082F192FA62EB72EC82ED92ED2
S1131CA0C0934320D093442020E030E046E953E43D
S1131CB00E94AE0318166CF020E030E046E953ECC5
S1131CC06E2D7F2D802F912F0E94DA03882364F0DC
S1131CD015C0A12CB12C0F2EF6E9CF2EF02D0F2E0E
S1131CE0F3E4DF2EF02D0AC0A12CB12C0F2EF6E95F
S1131CF0CF2EF02D0F2EF3ECDF2EF02D6A2D7B2D41
S1131D008C2D9D2D0E946104862F972FDF91CF91FA
S1131D101F910F91FF90EF90DF90CF90BF90AF9005
S1131D20089580E098E035DD68EA72E180E098E0AB
S1131D3080DDE0E0F8E08181887F818380E09DE7B9
S1131D4086A397A386818C7F868386818160868320
S1131D5078948081807F81608083089528EC30E0CE
S1131D6041E050E064E070E083E990E205DE28ECB5
S1131D7030E042E050E064E070E08DE990E2FCCDB8
S1131D808F3F2FEF920749F4E0E8F6E08481846006
S1131D9084838481877F848313C0019749F4E0E8B6
S1131DA0F6E084818B7F848384818860848308C087
S1131DB0E0E8F6E084818B7F84838481877F848359
S1131DC083E990E29ACE8130910549F4E0EEF7E0A0
S1131DD084818160848384818D7F848313C0019690
S1131DE049F4E0EEF7E084818E7F8483848182600D
S1131DF0848308C0E0EEF7E084818E7F848384814D
S1131E008D7F84838DE990E278CE0F931F93CF93D7
S1131E10DF939C0177230CF43EC065367105A4F46E
S1131E20269FC001279F900D369F900D112464E6D4
S1131E3070E046D4C901861B970BBC018901C1E03F
S1131E40D0E081E090E06FC0693C710594F4645681
S1131E507109269FC001279F900D369F900D112474
S1131E6064E670E02DD48901C1E0D0E080E090E028
S1131E705AC0685C7109269FC001279F900D369F48
S1131E80900D112464E670E01BD48901C1E0D0E018
S1131E908FEF9FEF48C06C399FEF79079CF0269F26
S1131EA0C001279F900D369F900D112464E670E0C9
S1131EB007D48B01020F131FB901C1E0D0E081E008
S1131EC090E031C068338FEF7807BCF04427552782
S1131ED0421B530B6C597F4F469FC001479F900D87
S1131EE0569F900D112464E670E0EAD38B01B9018A
S1131EF0C0E0D0E081E090E016C044275527421BA3
S1131F00530B68537F4F469FC001479F900D569FC8
S1131F10900D112464E670E0D3D38B01B901CFEFA7
S1131F20DFEF81E090E04FDFB801CE0129DFDF91E0
S1131F30CF911F910F9108950F931F93CF93DF9328
S1131F4000D000D0CDB7DEB78C01AE014F5F5F4F3C
S1131F5061E080E092E00E9455070031110538F0FD
S1131F6019820051000F000F000F0A8307C082E09E
S1131F708983000F000F000F07600A83AE014F5FD3
S1131F805F4F61E080E092E00E941C0780E092E0F5
S1131F900E94A5068FB7F894E0E0F2E09081946087
S1131FA090838FBF868180FFFDCFE0E0F2E081E087
S1131FB0868324A135A1822F932F2496CDBFDEBF23
S1131FC0DF91CF911F910F910895CF93DF93EC018F
S1131FD0B3DFCE01B1DF282F392FFE01EE0FFF1F33
S1131FE0E958FF4D80819181821793073CF4FE01EB
S1131FF0EE0FFF1FE958FF4D20833183FE01EE0FE2
S1132000FF1FE55AFF4D80819181281739073CF461
S1132010FE01EE0FFF1FE55AFF4D20833183CC0FE5
S1132020DD1FFE01E958FF4DC55ADF4D4081518146
S113203088819981840F951F99230CF40196AC0132
S11320405595479581E0421753070CF080E0DF91E6
S1132050CF910895E7E7F0E2ABE5B0E22FE830E294
S113206080EA9FE0119211928D939D93E217F307FA
S1132070C9F70895CF93DF93CDB7DEB72B97CDBFC4
S1132080DEBF609100207091012080910220909128
S1132090032060938F2070939020809391209093DD
S11320A0922020E030E0A9010E94CC02262F372F95
S11320B0F82FE92F462F572F682F792F409353205D
S11320C0509354206093552070935620822F932F61
S11320D0AF2FBE2F8093732090937420A09375200C
S11320E0B09376200E9449060E944A0687E0E0EAFF
S11320F0F0E08283BE016F5F7F4F80E092E00E9438
S1132100F906AE01485F5F4F61E080E092E00E9413
S113211055078A819B819F7890619B83817E8A8306
S11321201C8282E08D8383E0888780E38987BE01F7
S11321306F5F7F4F80E092E00E94BC06AE01485F73
S11321405F4F61E080E092E00E941C0780E090E035
S1132150F3DE04DE7FDFE5DDE0E6F6E08FEF81838A
S113216090E2918390E1918391E09283E0E8F6E03C
S11321708183E0EEF7E08183FFCFCF92DF92EF928D
S1132180FF920F931F93CF93DF93CDB7DEB7C8555C
S1132190D240CDBFDEBFCC24C394D12CCC0EDD1EE7
S11321A0760100E010E0C80110DFD7018C9311968E
S11321B01C92B2E0EB0EF11C0F5F1F4F0C301105A7
S11321C091F7FE01799680E492E0DF019C011D9273
S11321D021503040E1F781E090E089AB9AAB2B9637
S11321E08EAF9FAF2B972D968EAF9FAF2D97A39653
S11321F08EAF9FAFA397A5968EAF9FAFA597A796D7
S11322008EAF9FAFA797ED968EAF9FAFED97EF96EA
S11322108EAF9FAFEF97CD56DF4F88839983C35915
S1132220D040CB56DF4F88839983C559D040C956D7
S1132230DF4F88839983C759D040C355DF4F8883C4
S11322409983CD5AD040C155DF4F88839983CF5AA3
S1132250D040CB53DF4F88839983C55CD040C953AA
S1132260DF4F88839983C75CD040C753DF4F88838F
S11322709983C95CD040C152DF4F88839983CF5D75
S1132280D040CF51DF4F88839983C15ED040C9507D
S1132290DF4F88839983C75FD040C750DF4F88835F
S11322A09983C95FD040C550DF4F88839983CB5F42
S11322B0D040C15FDE4F88839983CF50D140CF5E39
S11322C0DE4F88839983C151D140CD5EDE4F888330
S11322D09983C351D140CB5EDE4F88839983C55126
S11322E0D140C75DDE4F88839983C952D140C55D13
S11322F0DE4F88839983CB52D140C35DDE4F888300
S11323009983CD52D140CF5BDE4F88839983C154EA
S1132310D140CD5BDE4F88839983C354D140CB5BDE
S1132320DE4F88839983C554D140C95BDE4F8883CF
S11323309983C754D140C55ADE4F88839983CB55BE
S1132340D140C35ADE4F88839983CD55D140C15AB9
S1132350DE4F88839983CF55D140CD58DE4F888393
S11323609983C357D140CB58DE4F88839983C5578F
S1132370D140C958DE4F88839983C757D140C75885
S1132380DE4F88839983C957D140C357DE4F888372
S11323909983CD58D140C157DE4F88839983CF5854
S11323A0D140CF56DE4F88839983C159D140C95556
S11323B0DE4F88839983C75AD140C755DE4F88833F
S11323C09983C95AD140C154DE4F88839983CF5B26
S11323D0D140CF53DE4F88839983C15CD140CD5324
S11323E0DE4F88839983C35CD140C752DE4F888314
S11323F09983C95DD140C552DE4F88839983CB5DF3
S1132400D140CF50DE4F88839983C15FD140CD50F6
S1132410DE4F88839983C35FD140CB50DE4F8883DE
S11324209983C55FD140C55FDD4F88839983CB50C5
S1132430D240C35FDD4F88839983CD50D240CD5DB8
S1132440DD4F88839983C352D240CB5DDD4F8883AF
S11324509983C552D240C95DDD4F88839983C752A1
S1132460D240C35CDD4F88839983CD53D240C15C95
S1132470DD4F88839983CF53D240C95ADD4F888377
S11324809983C755D24000E010E0AF0110C02D91F0
S11324903D91819191912817390711F060E070E026
S11324A0E417F507A1F7672B41F40F5F1F4F0831BD
S11324B0110541F40FEF1FEF29C00F3F3FEF130742
S11324C091F017C07801EE0CFF1CE00EF11EEE0C2B
S11324D0FF1CEE0CFF1CEE0CFF1C89E190E08C0F3E
S11324E09D1FE80EF91ED701EC2DFD2D61E070E073
S11324F0CECF0115110551F48091572090915820A9
S11325008731910579F40BC008E110E0009357205E
S1132510109358200C501109802F912F0CC008E102
S113252010E0F4CF8C30910519F0489779F7ECCF8F
S11325300CE010E0EBCFC85ADD4FCDBFDEBFDF911A
S1132540CF911F910F91FF90EF90DF90CF9008955E
S1132550CF93DF93E0E6F6E0808580FD51C0809163
S1132560452090914620892B09F04AC081E090E0F3
S113257080934520909346202FEF37EA81E621503F
S113258030408040E1F700C00000C0E0D0E060E0EF
S113259070E0CE013ADC8FE79EE30197F1F700C0CB
S11325A000002196C436D10591F760E070E084E61E
S11325B090E02BDC9FEF2FE433EC9150204030402F
S11325C0E1F700C0000066E970E08AE590E01DDCF8
S11325D08FEF93ED20E3815090402040E1F700C05D
S11325E0000060E070E080E090E00FDC3AEA8AE905
S11325F09BE526E03150804090402040D9F7000010
S1132600BCDDEC01833F3FEF930709F43BC08091AD
S1132610452090914620019781F5BE0180E090E02D
S1132620C2DA9C018093592090935A20CE01DD2375
S113263024F4882799278C1B9D0B6CE070E040D014
S113264047EE4603C001479F900D1124499629F097
S1132650809304209093052006C08FE090E080933F
S1132660042090930520C093A720D093A820B901FB
S11326708091042090910520C8DB80E2E0E6F6E03A
S113268086831BC08091452090914620019789F450
S11326906091A7207091A82080E090E084DA809374
S11326A0592090935A20BC018091042090910520D8
S11326B0ACDB80E2E0E6F6E08583DF91CF9108951C
S11326C097FB072E16F4009406D077FD08D039D076
S11326D007FC05D03EF4909581959F4F0895709521
S11326E061957F4F0895A1E21A2EAA1BBB1BFD0121
S11326F00DC0AA1FBB1FEE1FFF1FA217B307E407DD
S1132700F50720F0A21BB30BE40BF50B661F771F34
S1132710881F991F1A9469F7609570958095909514
S11327209B01AC01BD01CF010895A29FB001B39FED
S1132730C001A39F01D0B29F700D811D1124911D72
S11327400895AA1BBB1B51E107C0AA1FBB1FA617F4
S1132750B70710F0A61BB70B881F991F5A95A9F746
S113276080959095BC01CD01089506D084FF08950D
S1132770CB0102D0805F0895AA27992329F4A85F8A
S1132780982B11F480E10895903118F4AD5F92957F
S1132790A395990FE8F78A2F992708952F923F92CE
S11327A04F925F926F927F928F929F92AF92BF925D
S11327B0CF92DF92EF92FF920F931F93CF93DF9309
S11327C0CDB7DEB7CA1BDB0BCDBFDEBF09942A88A9
S11327D0398848885F846E847D848C849B84AA8431
S11327E0B984C884DF80EE80FD800C811B81AA81BE
S11327F0B981CE0FD11DCDBFDEBFED010895F89490
S1052800FFCF04
S11128020000803F19000000000000000000EC
S9030000FC
