:1000000053C0000078C0000076C0000074C000003B
:1000100072C0000070C000006EC000006CC0000024
:100020006AC000000C94DF0866C0000064C00000D5
:1000300062C0000074C500005EC000005CC000002B
:100040005AC0000058C0000056C0000054C0000054
:1000500052C0000050C000004EC000004CC0000064
:100060004AC0000048C00000000000000000001F5F
:100070001F1F1F1F1F1F3E6733323E3E6333320078
:10008000666F6C6C6F77657200504944204C696EE6
:10009000650033F720526F626F740020506F6C6FF1
:1000A0006C7500009B099C0911241FBECFEFD8E09E
:1000B000DEBFCDBF11E0A0E0B1E0EAE4F1E202C0B2
:1000C00005900D92AC34B107D9F711E0ACE4B1E082
:1000D00001C01D92A33CB107E1F710E0C6EAD0E0F1
:1000E00004C02297FE010E945F0FC43AD107C9F7EE
:1000F00031D10C94991084CF809100018F5F80934F
:100100000001089560E088E690E016D661E089E697
:1001100090E012D662E08AE690E00ED663E08BE6CD
:1001200090E00AD664E08CE690E006D665E08DE6C5
:1001300090E002D666E08EE690E0FED568C6AAE0C2
:10014000B0E0E5EAF0E00C94260F8C01D12C8AE0B7
:10015000C82E95E6E92EF12CE2E3F1E0DE011196DE
:100160008C2D01900D928A95E1F7F8018191919182
:100170008F01B7010E94B70E81E090E08C0F9D1FA8
:10018000680F791FFB018081D9D5D394F5E0DF1288
:10019000E3CF2A96E8E00C94420FAAE0B0E0E3ED4A
:1001A000F0E00C942A0F80ED97E00E949909AADFF5
:1001B0008BE990E050D661E080E0C2D682E990E021
:1001C0004AD686E790E007D588EE93E00E9426099C
:1001D0001ED689E890E03FD661E080E0B1D680E8A5
:1001E00090E039D688EE93E00E94260980E1DDD7C1
:1001F000811115C0D7D18C010AD6B801882777FDA7
:100200008095982F7ED68CE391E016D661E080E051
:1002100097D68FE391E010D684E690E0E5CF80E1B9
:10022000B4D788EE93E00E9426090CEE1FEF083247
:10023000110528F068ED7FEF88E290E004C068E2E5
:1002400070E088ED9FEF76D781E00E945F0984E13E
:1002500090E0FCD70F5F1F4F0C33110541F760E0B2
:1002600070E080E090E066D780E19FD7811115C0F3
:1002700061E0CE0101960E9463098C01C8D5B801E6
:1002800080E090E03ED661E080E05AD6CE01019653
:1002900056DF84E690E0DAD7E7CF80E176D7B7D5AE
:1002A00087E491E0C9D52A96E4E00C94460F0F93B9
:1002B0001F93CF93DF93EB018A01C81BD90BDA019F
:1002C0008D919C918C0F9D1F813DB7E09B071CF089
:1002D00080ED97E00AC08033F8EF9F0724F0DA0141
:1002E0008D939C9305C080E398EFF8019183808300
:1002F000CE0165E070E00E94CB0EFB01D8018D912C
:100300009C9164E670E00E94CB0EE60FF71FD901C6
:100310008D919C911197AE01481B590B6AE0649F27
:10032000C001659F900D1124CD93DC93E80FF91F58
:10033000E033B8EFFB0714F4E0E3F8EFE13D47E00A
:10034000F40714F0E0EDF7E0CF01DF91CF911F91BA
:100350000F910895AEE0B0E0E0EBF1E00C94280FCF
:100360001E861D861C861B8618DF01E117E224E627
:10037000E22EF12C015011090115110551F161E036
:10038000CE010196A0D7BC01605D77409E01255F3C
:100390003F4FAE01435F5F4F80E090E088DF8536DE
:1003A000910574F48C392FEF92071CF097FF0AC067
:1003B00002C08CE99FEF64E670E08C599F4F07C044
:1003C00084E690E0B701681B790B84E690E0B2D632
:1003D000D1CF60E070E080E090E0ACD6FFCF882322
:1003E00021F480917C008F7D03C080917C0080622D
:1003F00080937C00089580917C0090E025E09595A5
:1004000087952A95E1F78170089580917A0090E0B0
:1004100036E0959587953A95E1F781700895EBDF81
:10042000882321F02091790030E004C020917800E9
:1004300030917900C90108958032B0F497E8909323
:100440007A0090917C00292F2064662311F0906C33
:1004500002C0922F9F77907E982B90937C00809182
:100460007A00806480937A000895A0E0B0E0EBE326
:10047000F2E00C94260F6B0160E0DEDFC6DF88231C
:10048000E9F7E601EE24FF24870180917A00806479
:1004900080937A00BADF8823E9F7C1DFA0E0B0E0FB
:1004A000E80EF91E0A1F1B1F219779F7C6019695C2
:1004B000879520E4C216D10440F48E0D9F1D6C2D4B
:1004C00070E00E94B70ECB010DC0BC0180E090E04F
:1004D0006E0D7F1D801F911F960140E050E00E942D
:1004E000DE0EC901CDB7DEB7E8E00C94420FA3E001
:1004F000B0E0EDE7F2E00C942B0FBC0180E090E05F
:10050000209101013091020140E050E00E949C0ED8
:10051000182F69837A839B836EDF69817A819B813F
:10052000882371F09B01412F592FCA01B9016158ED
:100530007F4F8F4F9F4F2FEF30E040E050E00DC0D6
:100540009B01412F592FCA01B90161507E4F8F4F36
:100550009F4F2FEF33E040E050E00E94DE0EC901D4
:100560002396E3E00C94470F80DFC1CF1F93CF9316
:10057000DF9341DF182F80E032DF86E06AE070E031
:10058000F3DFEC01812F2BDF9E01220F331F2C0F95
:100590003D1F2F5F3F4F36952795C901DF91CF91C2
:1005A0001F910895E3CF089590915101E0914D017D
:1005B000F0914E01992311F0849101C08081282F80
:1005C00021542A3110F4805E0895803271F4209114
:1005D0004D0130914E01A9014F5F5F4F50934E0185
:1005E00040934D012115310509F70895EF92FF92CF
:1005F000CF93DF93D9DFC0E0D0E01AC09E01220F75
:10060000331F93E0CC0FDD1F9A95E1F7C20FD31F84
:10061000992787FD9095C80FD91FE09780914D01CC
:1006200090914E01019690934E0180934D01BCDF55
:10063000982F90539A3010F3CE01DF91CF91FF9015
:10064000EF90089510926F0083E28093800081E123
:10065000809381001092820080E197E2909389005C
:100660008093880010928B0010928A00229A7894CE
:10067000089580914C01882321F481E080934C01FE
:10068000E1CF0895A0E0B0E0E8E4F3E00C94220F9D
:100690008C015B01E42EEDDF1092030117FF04C013
:1006A0001F77AAE0FA2E02C0FF24F394C0908100C5
:1006B000DD2428EFC222DD2488EC3F2D389FC001C5
:1006C000112480179107D8F4E80167E20131160779
:1006D00010F0C0E1D7E2BE017695679580E090E02A
:1006E0006058794687469F4F9E0140E050E00E9447
:1006F000DE0E890181E090E0C82AD92A2CC098E258
:10070000F99E902D112480E0892EE4014E01982E4F
:10071000E4018016910608F4E801BE01769567951C
:100720009E0140E050E08F2D8A3039F480E090E067
:10073000605E734481449F4F06C080E090E0605348
:100740007D4E8C4E9F4F0E94DE0E890152E0852E19
:10075000912CC828D9282F2D2A3039F4CE0105969E
:100760006AE070E00E94B70EEB0133E0C83ED307A9
:1007700079F0BE0180E090E0950140E050E00E94F9
:100780009C0E28EE33E040E050E00E94000F01C0D4
:10079000950110926F00C092810010938900009320
:1007A000880040918800509189006E2D603108F0DA
:1007B0006FE080E190E0861B9109BA0102C0769556
:1007C00067958A95E2F770938B0060938A00309367
:1007D00054012093530186B38FEF86BB81E0809351
:1007E0006F00CDB7DEB7ECE00C943E0F9B018F3F5E
:1007F00011F0442329F488EE93E0B90140E049C0A8
:10080000813130F0582F5051503618F05FE501C05B
:1008100050E0852F6CE00E94AB0EA82FB0E0E4EF13
:10082000FFEFAE9FB001AF9F700DBE9F700D112402
:10083000650F711D6C30710540F4FB01EE0FFF1F59
:10084000E35FFE4F6081718102C060E070E087303D
:1008500081F0082E02C0660F771F0A94E2F78230FB
:1008600028F0CB0105966AE070E00CC0605070483B
:100870000BC0CB01B6E0880F991FBA95E1F702963D
:1008800065E070E00E94B70E403108F04FE0CB0108
:10089000B901F8CEA0E0B0E0E0E5F4E00C94210F5F
:1008A000B090040180914F01882359F0609150016C
:1008B000662339F08FEF70E040E098DF109250012E
:1008C00029C1C0ECDDE5AA24A39414E0712E00ED4B
:1008D00017E0B4E0EB2EF12CA4EFCA2EA1E0DA2E43
:1008E000FFE08F2E912C60DE20914D0130914E0162
:1008F0002F5F3F4F30934E0120934D018636F1F12B
:100900008736CCF4823609F4AAC083367CF48E3361
:1009100049F18F333CF4813209F482C08C3309F001
:1009200096C022C0813609F092C096C0843601F18B
:1009300085360CF51BC08F3609F445C0803744F46A
:100940008C3611F18D3659F1873609F080C019C007
:10095000843709F441C0863709F45CC0823709F056
:1009600076C036C0B394BFCFBA94BDCFEE2432C0A8
:10097000EE2482E076C0EE2484E073C0EE2485E0AD
:1009800070C0EE2487E06DC031DEBC01909306019B
:1009900080930501809107019091080134C004DE25
:1009A0008C3619F410924F0104C0A0924F0110929E
:1009B000500180914D0190914E01019690934E010E
:1009C00080934D0190CF12DEB82E809304018BCF1F
:1009D000EE24E39480E045C009DEBC01CE010E9414
:1009E000B70ECB01880F991F53E0660F771F5A95FA
:1009F000E1F7860F971F909308018093070160919C
:100A00000501709106010E94B70E70930A01609370
:100A1000090169CFEBDD90930C0180930B0163CF4B
:100A2000709204011093080100930701F0920601EF
:100A3000E0920501D0920A01C092090190920C0146
:100A400080920B0110924F0144E0B42E4CCF1092D3
:100A50004E0110924D015EC0EE2489E002C0EE24EA
:100A60008BE09CE0B99EB02C1124B80E9DDD8B323A
:100A700011F08332B1F480914D0190914E010196B5
:100A800090934E0180934D01B394F0CF80914D012E
:100A900090914E01019690934E0180934D01BA942E
:100AA00083DD8D3299F3C0910901D0910A01815300
:100AB000883050F4C0910701D091080197DDBC0146
:100AC000CE010E94B70EEB018E010BC080914D014B
:100AD00090914E01019690934E0180934D01C00F6D
:100AE000D11F1695079560DD8E3281F380914F01FD
:100AF000882339F0CE019695879580935001C81BC5
:100B0000D109EE2011F0BB24BA948B2DBE01409187
:100B10000B016CDECDB7DEB7EDE00C943D0F1F92FC
:100B20000F920FB60F9211242F933F934F935F9321
:100B30006F937F938F939F93AF93BF93EF93FF93A5
:100B400080915301909154019C0121503040309389
:100B5000540120935301009709F510926F00789487
:100B600080918100887F81608093810080E197E29D
:100B7000909389008093880010928B0010928A00D5
:100B800081E08093030180914D0190914E01009787
:100B900029F080915201882309F47CDEFF91EF91C6
:100BA000BF91AF919F918F917F916F915F914F9185
:100BB0003F912F910F900FBE0F901F90189510929C
:100BC0006F0090934E0180934D0181E0809351011D
:100BD000109250015FCEF3CF089581E090E06F93C3
:100BE00064E06A95F1F76F910197C9F708950F9343
:100BF0001F93CF93DF931AB157985A98289AC0E061
:100C0000D0E0EBDF5C9AE9DF09B15C98E6DF5C9A43
:100C1000E4DF5C9807FF11C024969E0140E050E09D
:100C20008091590190915A01A0915B01B0915C01B2
:100C3000281739074A075B0720F31AB9DF91CF91CC
:100C40001F910F91089565B190E0AC014170507013
:100C5000440F551F9C012670307053E0220F331F44
:100C60005A95E1F7242B6D7C262B25B92BB1887082
:100C7000907034E0880F991F3A95E1F72F77282B71
:100C80002BB95C9AAADF5C98A8CFA2E0B0E0EBE4B5
:100C9000F6E00C94270F182F4A83698384D0A7DFCE
:100CA000F4B005B1DAB0EBB0289869814A816623C7
:100CB00011F05A9A01C05A9884B1826384B9579A44
:100CC000413021F0812F82958F70BDDF812F8F7091
:100CD000BADFDAB8EBB8F4B805B92296E7E00C94BD
:100CE000430F60E042E0D1CF61E042E0CECFEF922F
:100CF000FF921F93DF93CF930F92CDB7DEB7660FAE
:100D0000660F660F482F592F7A0110E0812F860F4A
:100D100080646983E6DFF7018491E6DF1F5F089452
:100D2000E11CF11C6981183089F70F90CF91DF9198
:100D30001F91FF90EF900895DACF0895D5CF0895D1
:100D400060E041E0A2CF80E197E2A0E0B0E08093D4
:100D5000590190935A01A0935B01B0935C01529AA0
:100D6000209A549A8EE190E071D283E0E9DF86E028
:100D700090E06CD283E0E4DF82E090E067D283E031
:100D8000DFDF82E090E062D282E0DADF82E090E0B2
:100D90005DD288E2A6DF88E0A4DF81E0A2DF86E002
:100DA000A0DF8CE09ECF80915D01882321F481E05B
:100DB00080935D01C8CF089581E093DF8091550154
:100DC00090915601009711F1A0E0B0E208C0E091C7
:100DD0005501F0915601E20FF31FB083AF5F2A2F48
:100DE00030E08091250190E001976091260170E04C
:100DF000869FA001879F500D969F500D11242417A8
:100E000035072CF310925801109257010895D4CF52
:100E10000895EF92FF92CF93DF93E82EE7017E01D2
:100E2000F92EE70101C060DF89918823E1F7DF91A6
:100E3000CF91FF90EF900895ECCF0895CF93DF937B
:100E4000EC0102C051DF2196FE0184918823D1F785
:100E5000DF91CF910895F2CF0895AAE0B0E0E2E3E8
:100E6000F7E0F2C79B01AC011AE0EAE0CE2ED12CEC
:100E7000E12CF12C5E010894A11CB11C022FCA01C7
:100E8000B901A70196019AD71150F501E10FF11DA3
:100E9000005D922F990F892F880F880F890F081BEB
:100EA0000083211531054105510541F707C0F601C1
:100EB000E10FF11D808118DF1F5F04C06E010894EF
:100EC000C11CD11C1A3098F32A96EAE0D9C7EF92D8
:100ED000FF920F931F937B018C0197FF0AC010951F
:100EE0000095F094E094E11CF11C011D111D8DE2B0
:100EF000FBDEC801B701B1DF1F910F91FF90EF90AA
:100F00000895E5CF0895A5E0B0E0E8E8F7E0A3C7CD
:100F1000182F80E8898380EC8A8384E98B8384EDB1
:100F20008C83FE01E60FF11D8181810F6D83D9DE77
:100F3000109358016D81609357012596E3E0A7C790
:100F4000E2CF0895FC011182108213821282158271
:100F500014821682683068F489E290E0918380837D
:100F60008BE290E0938382838AE290E0958384838E
:100F700011C06E30C0F483E290E09183808385E2FB
:100F800090E09383828384E290E09583848370E091
:100F90006850704081E090E002C0880F991F6A9508
:100FA000E2F7868308956531B8F486E290E0918394
:100FB000808388E290E09383828387E290E0958348
:100FC000848370E06E50704081E090E002C0880F32
:100FD000991F6A95E2F786830895FC01A481B58183
:100FE0008681662321F09C91982B9C9308959C9177
:100FF000809589238C930895FC016F3F31F4A28181
:10100000B3818C91968189270CC0A281B38186819E
:10101000662321F09C91982B9C9308959C91809538
:1010200089238C930895A7E0B0E0E8E1F8E011C7C8
:10103000282FF62E8E010F5F1F4FC801622F82DF0F
:10104000C8016F2DD9DFC80161E0C7DF2796E5E051
:101050001CC7E0EBF0E083EF8083808184BDE1EB8F
:10106000F0E082E08083808185BDE4EBF0E01082D7
:101070008081E3EBF0E08083808188BD88B587BD07
:1010800086E060E0D0DF85E060E0CDDF8BE060E00F
:10109000CADF83E060E0C7CF80915E01882321F43E
:1010A00081E080935E01D5CF0895CF93DF93EC016B
:1010B000F3DFD7FF05C0D095C195DF4F81E001C0B8
:1010C00080E0CF3FD10519F014F0CFEFD0E08823B6
:1010D00019F018BCC7BD02C0C8BD17BCDF91CF91C5
:1010E0000895CF93DF93EC01D7DFD7FF05C0D095EC
:1010F000C195DF4F81E001C080E0CF3FD10519F0FD
:1011000014F0CFEFD0E0882329F01092B400C09300
:10111000B30004C0C093B4001092B300DF91CF912C
:101120000895CF93DF93EB01C0DFCE01DADFDF91CB
:10113000CF910895F6CF089584B18D7C84B985B19F
:10114000826385B985E090E06F9364E06A95F1F77A
:101150006F910197C9F7089580915F01882321F469
:1011600081E080935F01E8CF08951F93182FF4DF8B
:1011700083B18123E9F38AE090E068D083B18123D1
:10118000B9F383B181231F910895EFCF0895A1E0B2
:10119000B0E0ECECF8E060C68983DEDF93B19095B7
:1011A000898189232196E2E073C6F1CF08956F9378
:1011B00064E06A95F1F76F910197C9F708952F924E
:1011C0008F939F932FB680916D0190916E01019640
:1011D00080936D0190936E0190E080916F01891F63
:1011E00080936F01909175019C5F90937501809140
:1011F000740180519742C0F09093750180937401FF
:10120000809170019091710101968093700190938B
:10121000710190E080917201891F80937201809129
:101220007301891F809373012FBE9F918F912F901F
:101230001895CF93DF93EC0104C088EE93E0B7DFFD
:1012400021972097D1F7DF91CF910895F2CF08959C
:10125000E0E7F0E080818E7F8083A0EBB0E08C91AE
:1012600083608C93A1EBB0E08C91807F8C938C9108
:1012700082608C93B89A808181608083789408958D
:1012800080917601882321F481E080937601E0CF7C
:101290000895F6DFE0E7F0E080818E7F8083109292
:1012A00070011092710110927201109273011092EC
:1012B0007501109274018081816080830895682F88
:1012C00087E791E0FDC49C01462F87E791E0B901D3
:1012D00020E05FC30F93DF93CF9300D000D00F9235
:1012E000CDB7DEB79C01962FDE011196E7E2F1E063
:1012F00085E001900D928150E1F7BE016F5F7F4F55
:10130000992329F087E791E045E00FEF04C087E7D4
:1013100091E045E003E16DD087E791E043D0B9DF8C
:101320000F900F900F900F900F90CF91DF910F9132
:10133000089560E0CFCF089587E791E0E3C4089572
:101340006F9364E06A95F1F76F910197C9F708957B
:10135000A7E0B0E0EDEAF9E07DC58C01FC01118267
:1013600010821382128215821482178216826131D2
:1013700018F080E1808702C0FC016087F801208BB3
:10138000CE010196642FDEDD8F81F80181878B818C
:101390009C81938782878D819E81958784872796FC
:1013A000E4E074C5FC01A485B585109771F08C91BB
:1013B0009185892B8C93A285B3859C91818580959D
:1013C00089238C9388EC90E0BBCF0895FC01A48521
:1013D000B585109769F08C919185892B8C93A285A6
:1013E000B3858C919185892B8C9388EC90E0A8CF64
:1013F0000895A7E0B0E0EEEFF9E01EC57C011B0107
:10140000642F3901402F20E0A3DF97012F5B3F4F6E
:10141000F9011082D701AE5BBF4F1C92C7018D5BF3
:101420009F4FFC011082F7017786668666242E01A5
:101430000894411C511C6C015D01490128C0062D16
:1014400010E0F101E00FF11FC20160817BDD2F810F
:10145000F701E00FF11F218B89819A81F801EE0FCE
:10146000FF1FEE0DFF1D92A381A38332910511F49E
:10147000F40109C08632910511F4F50104C08932E6
:10148000910521F4F6018081822B80836394F7011A
:1014900080856816A0F22796E2E1EAC4A0E0B0E0F9
:1014A000E3E5FAE0CEC4EC015B01FC01EF5BFF4F2A
:1014B0009080FC01EE5BFF4F8080FC01ED5BFF4FF5
:1014C000708080E009C0E82FF0E0EE0FFF1FEA0D0A
:1014D000FB1D118210828F5F98858917A0F384B15C
:1014E00021E4E22EF12CEC0EFD1ED7019C91892BFC
:1014F00084B987B18E010E5B1F4FF8019081892B53
:1015000087B98AB193E4C92ED12CCC0EDD1ED60149
:101510009C91892B8AB985B1F7019081892B85B976
:1015200088B1D8019C91892B88B98BB1F601908143
:10153000892B8BB98AE090E003DF94B1D7018C91BD
:101540008095892384B997B1F8018081809589239A
:1015500087B99AB1D6018C91809589238AB995B1C2
:10156000F70180818095892385B998B1D8018C9144
:101570008095892388B99BB1F60180818095892364
:101580008BB9C090B000E090B1008091B000836052
:101590008093B00082E08093B1000091B20080E0BF
:1015A00090E039C02091B200201B820F911D020FE4
:1015B000F3B0F91409F04DC096B0981409F049C081
:1015C00029B1271509F045C024C0212F30E0A90119
:1015D000440F551FF501E40FF51F608171816115FE
:1015E000710599F44C0F5D1FDA0191964D915C9154
:1015F0009297DA014C912C0F3D1FD90151962C91F5
:101600005197422311F4918380831F5F288512171D
:10161000E0F2892C9F2C2E853F858217930710F2CC
:10162000C092B000E092B10020E00FC0E22FF0E0E5
:10163000EE0FFF1FEA0DFB1D80819181009721F4C1
:101640008E859F85918380832F5F8885281770F30F
:1016500005C0F3B096B079B010E0D8CFCDB7DEB703
:10166000EDE00BC4EF92FF920F931F93CF93DF93A4
:10167000FC019B0100917C0010917A00E7B0F8B06A
:1016800080917A0086FDFCCF80E00AC0A82FB0E0F0
:10169000AA0FBB1FA20FB31F11961C921E928F5F41
:1016A0009085891798F397B182A18095892387B98E
:1016B00098B182A18095892388B987E880937A00C0
:1016C00070E029C0DF01A60FB11D51968C91519792
:1016D000806480937C0080917A00806480937A009B
:1016E00080917A0086FDFCCFA62FB0E0AA0FBB1F29
:1016F000A20FB31F40917800509179008D919C9179
:101700001197840F951F11969C938E936F5F808520
:101710006817C0F27F5F81A1781710F460E0F7CFFF
:1017200040E013C0C42FD0E0CC0FDD1FC20FD31F89
:1017300061A170E0CB0195958795A881B9818A0F49
:101740009B1F15D3798368834F5F8085481750F3BB
:1017500000937C0010937A00F8B8E7B8CDB7DEB7F5
:10176000E6E092C3A0E2B0E0E7EBFBE070C38C01DF
:101770007B01D42E842F8150823010F4C80126DEE4
:10178000D80150968C915097882371F4C801B70105
:1017900085DEC80107DEBD2DB230B9F5C801BE0136
:1017A0006F5F7F4F7BDE0DC0C801B7015BDFC801F3
:1017B000F9DDED2DE23049F5C801BE016F5F7F4FC5
:1017C00051DF60E0AE014F5F5F4F1BC0862F90E09E
:1017D000880F991FF701E80FF91F840F951FD80193
:1017E0001E962D913C911F97DC018D919C91119734
:1017F000281B390B80819181820F931F91838083F5
:101800006F5FF8018085681708F3A096E7E03BC397
:101810008F929F92AF92BF92CF92DF92FF920F93DF
:101820001F93CF93DF93EC01C62E072FF42E423087
:1018300011F0FF2051F48C819D81009709F49DC027
:101840008E819F81009709F498C08F2D815082303E
:1018500050F488819981009709F48FC08A819B8117
:10186000009709F48AC0CE016C2D702F4F2D7ADFBE
:10187000AC2CB02E00E010E08824992478C08F2D85
:10188000813059F4EA81FB81E00FF11FC080D180E3
:10189000E881F981E00FF11F0DC08C819D81FF204F
:1018A00061F4EE81FF81E00FF11FC080D180800FD5
:1018B000911FFC01408151812BC0800F911FFC01C1
:1018C00080819181E881F981E00FF11F4081518190
:1018D000CE84DF848417950710F4A60104C04C0D54
:1018E0005D1D481B590BEE81FF81E00FF11F8081C8
:1018F0009181EA81FB81E00FF11F20813181CE844B
:10190000DF848217930720F0C20ED31EC81AD90AAB
:10191000C41AD50AC1F0F5016081718180E090E0C0
:101920009A0140E050E0621B730B840B950B28EE8C
:1019300033E040E050E000D2960140E050E060D259
:1019400037FD0AC002C020E030E0F3E0293E3F0747
:101950002CF028EE33E002C020E030E0F5012193C6
:1019600031935F010894811C911C0E5F1F4F888585
:1019700090E0881699060CF482CFDF91CF911F91E9
:101980000F91FF90DF90CF90BF90AF909F908F907E
:101990000895A5E0B0E0EEECFCE04EC24C01C62E8E
:1019A000E72E2D8335DFD40118964C901897DE2C46
:1019B000642D70E080E090E028EE33E040E050E0FD
:1019C000BBD169837A838B839C83EE24FF248701B8
:1019D00066247724882499245401552435C0F601BF
:1019E0003081218142E0242E312CC20CD31CC9014C
:1019F000492F582F1A012D81222329F088EE93E0D8
:101A0000821993091C0199EC291631042CF4A3E3E3
:101A10002A1631048CF002C055245394B101882752
:101A200077FD8095982FA801970186D1860E971E85
:101A3000A81EB91E620C731C88EE93E0A0E0B0E013
:101A4000E80EF91E0A1F1B1F89819A81AB81BC8198
:101A5000E816F9060A071B0711F65520F1F455247C
:101A600008944108510824EF31E0429EC001439E92
:101A7000900D529E900D11242091BB013091BC011C
:101A800028173907ACF088EE93E0489E9001499EF4
:101A9000300D589E300D11240DC0930140E050E0F0
:101AA000C501B4018BD12093BB013093BC0102C0AE
:101AB00020E030E0C9012596E2E1DAC1A7E6B0E016
:101AC000E3E6FDE0B9C18C014B016A01A6962FAF98
:101AD000A697DA018D919C9111970097E1F4F80196
:101AE000808590E0880F991FFDD1D60111969C93B7
:101AF0008E93009709F4E0C0FC0180E090E003C001
:101B0000119211920196D80118962C91189730E0F5
:101B100082179307ACF3F40180819181009789F0DB
:101B2000EE24FF245E010894A11CB11CB1E46B2ECD
:101B3000712C6C0E7D1EA1E24A2E512C4C0E5D1EA6
:101B400022C0D80118968C9190E0880F991FCAD1B5
:101B5000F40191838083009709F4AEC0FC0180E01A
:101B600090E0D80107C01E962D913C911F972193BC
:101B70003193019618962C91189730E082179307AD
:101B800094F38D01CDCFC801B501A6964FADA697B0
:101B9000E9DDD80118968C911897E82FF0E0A5960A
:101BA000FFAFEEAFA5971301F501A3965FAE4EAE62
:101BB000A397930140E050E0A8965FAE4EAEA89781
:101BC00037C0E114F10461F0A896AEADBFADA8979F
:101BD0006D917C911197808191816817790760F4EC
:101BE00080819181A896AEADBFADA89711969C93C8
:101BF0008E93E114F10449F0D9016D917C91119714
:101C0000808191818617970728F480819181D9017D
:101C10008D939C934F5F5F4F2E5F3F4F3296A896F8
:101C20008EAD9FADA8970296A8969FAF8EAFA8974E
:101C3000A596AEADBFADA5974A175B0714F2089401
:101C4000E11CF11CBAE0EB16F10409F09CCF80E036
:101C500090E02CC0F101419151911F01BC01660F30
:101C6000771FD601ED91FC911197E60FF71F2081A8
:101C700031812417350710F451834083A396EEADCC
:101C8000FFADA39741915191A396FFAFEEAFA397FC
:101C9000D401ED91FC911197E60FF71F208131815E
:101CA0004217530710F4518340830196F8012085B1
:101CB00030E08217930774F2C959DF4FE2E1D8C0D0
:101CC0001F93CF93DF93EC01162F862F8150823024
:101CD00050F4AE014E5F5F4FCE01BE0121E0EEDE5B
:101CE000123019F00BC0662349F4BE016C5F7F4FC0
:101CF000AE014A5F5F4FCE0120E0E0DEDF91CF9181
:101D00001F910895CF93DF93EC018A819B81009707
:101D100009F080D18E819F81009709F07BD1888165
:101D20009981009709F076D18C819D81009709F007
:101D300071D1DF91CF910895DB018F939F93B3D041
:101D4000BF91AF91A29F800D911DA39F900DB29F57
:101D5000900D11240895991B79E004C0991F9617DE
:101D600008F0961B881F7A95C9F780950895AA1BDD
:101D7000BB1B51E107C0AA1FBB1FA617B70710F076
:101D8000A61BB70B881F991F5A95A9F780959095A8
:101D9000BC01CD01089597FB072E16F4009406D0E0
:101DA00077FD08D0E4DF07FC05D03EF490958195DF
:101DB0009F4F0895709561957F4F0895A1E21A2E67
:101DC000AA1BBB1BFD010DC0AA1FBB1FEE1FFF1FDF
:101DD000A217B307E407F50720F0A21BB30BE40B2F
:101DE000F50B661F771F881F991F1A9469F7609576
:101DF0007095809590959B01AC01BD01CF01089530
:101E0000052E97FB16F400940FD057FD05D0D6DFB2
:101E100007FC02D046F408C05095409530952195B6
:101E20003F4F4F4F5F4F0895909580957095619506
:101E30007F4F8F4F9F4F08952F923F924F925F9207
:101E40006F927F928F929F92AF92BF92CF92DF92CA
:101E5000EF92FF920F931F93CF93DF93CDB7DEB72F
:101E6000CA1BDB0B0FB6F894DEBF0FBECDBF0994C3
:101E70002A88398848885F846E847D848C849B841A
:101E8000AA84B984C884DF80EE80FD800C811B8128
:101E9000AA81B981CE0FD11D0FB6F894DEBF0FBE57
:101EA000CDBFED0108950FD0A59F900DB49F900D6B
:101EB000A49F800D911D11240895EE0FFF1F059022
:101EC000F491E02D0994A29FB001B39FC001A39F9C
:101ED000700D811D1124911DB29F700D811D112463
:101EE000911D0895CF93DF938230910510F482E025
:101EF00090E0E091C101F091C20120E030E0A0E06B
:101F0000B0E0309739F14081518148175907B8F056
:101F10004817590771F482819381109729F013961D
:101F20009C938E9312972CC09093C2018093C10111
:101F300027C02115310531F04217530718F0A901C8
:101F4000DB0101C0EF019A01BD01DF010280F381D5
:101F5000E02DD7CF21153105F9F0281B390B24309E
:101F6000310580F48A819B816115710521F0FB01A7
:101F70009383828304C09093C2018093C101FE01C8
:101F8000329644C0FE01E20FF31F819391932250D9
:101F90003109398328833AC02091BF013091C001B3
:101FA000232B41F420912E0130912F013093C00159
:101FB0002093BF0120912C0130912D012115310575
:101FC00041F42DB73EB74091300150913101241BAF
:101FD000350BE091BF01F091C001E217F307A0F4C7
:101FE0002E1B3F0B2817390778F0AC014E5F5F4F6F
:101FF0002417350748F04E0F5F1F5093C0014093E0
:10200000BF018193919302C0E0E0F0E0CF01DF9146
:10201000CF910895CF93DF93009709F487C0FC0117
:10202000329713821282C091C101D091C2012097D0
:1020300081F420813181280F391F8091BF01909157
:10204000C0018217930779F5F093C001E093BF01B7
:102050006DC0DE0120E030E0AE17BF0750F41296ED
:102060004D915C9113979D014115510509F1DA01DC
:10207000F3CFB383A28340815181840F951F8A17C8
:102080009B0771F48D919C911197840F951F029677
:102090009183808312968D919C9113979383828371
:1020A0002115310529F4F093C201E093C1013EC02E
:1020B000D9011396FC93EE9312974D915D91A40F65
:1020C000B51FEA17FB0779F480819181840F951F72
:1020D0000296D90111969C938E93828193811396D7
:1020E0009C938E931297E0E0F0E08A819B810097A9
:1020F00019F0FE01EC01F9CFCE0102962881398159
:10210000820F931F2091BF013091C001281739071A
:1021100069F4309729F41092C2011092C10102C0F3
:1021200013821282D093C001C093BF01DF91CF917F
:10213000089510E0C6EAD0E003C0FE01C0DE22969A
:0A214000C83AD107D1F7F894FFCF99
:10214A0001881301040400D007F4010F009C01B5B3
:10215A0001CF01EA0107022602470269028E02B58F
:10216A0002DE020A0302080E0F1011120000C30158
:10217A002000200000010203040506FF6D560050EE
:0C218A0072657373204200476F21000053
:00000001FF
