:1000000000000007000201000003040600000000D9
:1000100000000000010204081020408001020408D2
:100020001020010204081020040404040404040441
:1000300002020202020203030303030300000000A2
:1000400023002600290000000000250028002B00C6
:1000500000000000240027002A0010E0A0E6B0E025
:10006000EEE0F4E003C0C89531960D92A236B107D8
:10007000D1F710E0A2E6B0E001C01D92AB36B107A7
:10008000E1F761E0809160000C948900CF93DF93E9
:10009000C0E6D0E061E088810E94C20068EE73E0B3
:1000A00080E090E00E949A0160E088810E94C20096
:1000B00068EE73E080E090E0DF91CF910C949A01BC
:1000C000833081F028F4813099F08230A1F00895D6
:1000D0008630A9F08730B9F08430D1F48091800067
:1000E0008F7D03C0809180008F778093800008957A
:1000F00084B58F7702C084B58F7D84BD08958091CB
:10010000B0008F7703C08091B0008F7D8093B000E6
:100110000895CF93DF9390E0FC01EC5EFF4F2491B4
:10012000FC01E85DFF4F8491882349F190E0880F3E
:10013000991FFC01E05BFF4FA591B4918A5B9F4F33
:10014000FC01C591D4919FB7611108C0F8948C91BE
:10015000209582238C93888182230AC0623051F4D7
:10016000F8948C91322F309583238C938881822B45
:10017000888304C0F8948C91822B8C939FBFDF916D
:10018000CF9108950F931F93CF93DF931F92CDB715
:10019000DEB7282F30E0F901E050F0408491F901FA
:1001A000EC5EFF4F1491F901E85DFF4F04910023CD
:1001B000C9F0882321F069830E9460006981E02FE3
:1001C000F0E0EE0FFF1FEA5BFF4FA591B4919FB7E0
:1001D000F8948C91611103C01095812301C0812B8B
:1001E0008C939FBF0F90DF91CF911F910F91089536
:1001F000CF93DF93282F30E0F901E050F040849155
:10020000F901EC5EFF4FD491F901E85DFF4FC49115
:10021000CC2391F081110E946000EC2FF0E0EE0FF2
:10022000FF1FE45CFF4FA591B4912C912D2381E039
:1002300090E021F480E002C080E090E0DF91CF9177
:1002400008951F920F920FB60F9211242F933F9390
:100250008F939F93AF93BF938091620090916300BF
:10026000A0916400B091650030916A0020E3230FF3
:100270002D3720F44096A11DB11D05C023EB230F9F
:100280004196A11DB11D20936A0080936200909356
:100290006300A0936400B093650080916600909124
:1002A0006700A0916800B09169000196A11DB11D81
:1002B0008093660090936700A0936800B0936900F4
:1002C000BF91AF919F918F913F912F910F900FBE52
:1002D0000F901F9018952FB7F8946091620070915D
:1002E000630080916400909165002FBF08953FB72F
:1002F000F8948091660090916700A0916800B09199
:10030000690026B5A89B05C02F3F19F00196A11DD5
:10031000B11D3FBF6627782F892F9A2F620F711D5D
:10032000811D911D46E0660F771F881F991F4A9512
:10033000D1F70895CF92DF92EF92FF92CF93DF93A0
:100340006B017C010E947701EB01C114D104E1042F
:10035000F10489F00E9406020E9477016C1B7D0B5C
:10036000683E734090F381E0C81AD108E108F108B3
:10037000C851DC4FEACFDF91CF91FF90EF90DF9033
:10038000CF9008958130910541F00297009729F0B0
:10039000880F991F01970197F1F70895789484B514
:1003A000826084BD84B5816084BD85B5826085BD71
:1003B00085B5816085BDEEE6F0E080818160808357
:1003C000E1E8F0E01082808182608083E0E8F0E084
:1003D000808181608083E1EBF0E0808184608083B4
:1003E000E0EBF0E0808181608083EAE7F0E08081EB
:1003F000846080838081826080838081816080834B
:0E0400008081806880831092C1000895089565
:02040E000D00DF
:00000001FF
