:10000000FDC0000018C1000016C1000014C10000AE
:1000100012C1000010C100000EC100000CC10000A0
:100020000AC1000008C1000061C2000078C20000DF
:1000300002C1000000C10000E9C2000010C30000BE
:1000400037C300005EC3000085C30000ACC30000DE
:10005000D3C30000FAC3000021C4000048C400005C
:10006000EAC00000E8C00000E6C00000E4C00000F4
:10007000E2C00000E0C00000DEC00000DCC0000004
:10008000DAC00000D8C00000D6C00000D4C0000014
:10009000D2C00000D0C00000CEC00000CCC0000024
:1000A000CAC00000C8C00000C6C00000C4C0000034
:1000B000C2C00000C0C00000BEC00000DBC5000020
:1000C00002C6000029C6000050C6000077C6000026
:1000D0009EC60000B0C00000AEC00000ACC0000072
:1000E000AAC00000A8C00000A6C00000A4C0000074
:1000F000A2C00000A0C000009EC000009CC0000084
:100100009AC0000098C0000096C0000094C0000093
:1001100092C0000090C000008EC000008CC00000A3
:100120008AC0000088C0000086C0000084C00000B3
:1001300082C0000005C400002CC4000053C40000AD
:100140007AC40000A1C40000C8C40000EFC40000CD
:1001500016C500003DC5000064C500006CC000006D
:100160006AC0000068C0000066C0000064C00000F3
:1001700062C0000060C000005EC000005CC0000003
:100180005AC0000058C0000056C0000054C0000013
:1001900052C0000050C000004EC000004CC0000023
:1001A0004AC0000048C0000046C0000044C0000033
:1001B00042C0000040C000003EC000003CC0000043
:1001C0003AC0000038C0000036C0000034C0000053
:1001D00032C0000030C000002EC000002CC0000063
:1001E0002AC0000028C0000026C0000024C0000073
:1001F00022C0000020C000001EC0000011241FBE4D
:10020000CFEFDFE2DEBFCDBF10E2A0E0B0E2E2E17F
:10021000FAE102C005900D92A030B107D9F720E2B3
:10022000A0E0B0E201C01D92AB35B207E1F70E9439
:10023000200C0C94070DE4CE08958FEF809370008E
:100240008093710080937200809373008093740098
:1002500080937500809376008FB7F894E0E5F0E026
:100260009081926090838FBF818181FFFDCF61E09B
:1002700080E490E02BD18FB7F894E0E5F0E0908136
:100280009E7F90838FBF81E0E0E4F0E08383089558
:100290002FB7F894FC01E059FF4F609580816823E7
:1002A00060832FBF08952FB7F894FC01E059FF4FEA
:1002B0008081682B60832FBF08958115924061F47F
:1002C00080910020982F9F5F90930020811104C09F
:1002D00062E081E090E0DCCF08958115924059F40E
:1002E00080910020815080930020811104C062E041
:1002F00081E090E0D8CF08951F93CF93DF93EC0176
:100300001FB7F894DADF8881816088831FBF8FB7B9
:10031000F894EAE3F0E290819F5F90838FBFDF91D2
:10032000CF911F910895FF920F931F93CF93DF9367
:10033000EB018115924071F561E270E082E0CCD072
:10034000182F60E270E082E0C7D0312F20E08901F1
:10035000082BFFB6F89480E092E0AFDFE0E0F2E037
:10036000208182E08083048715878D819E81808F24
:10037000918F8A8182838C8184838B81838389811D
:100380008183822F81709881892B808380E092E025
:10039000A4DFFFBEDF91CF911F910F91FF900895D1
:1003A000FF920F931F93CF93DF93EC018B01FFB666
:1003B000F89483DF8881807CF8018083888D998D13
:1003C000858396838A8182838C8184838B818383D6
:1003D00089818183CE0181DFFFBEDF91CF911F91A3
:1003E0000F91FF900895CF92DF92EF92FF920F93BB
:1003F0001F93CF93DF937C01D62E8A01862F8370C3
:1004000029F4962F9695969582E002C0962F80E06B
:1004100090FF8F5FE701A09698E0899FC00DD11DE6
:100420001124CFB6F894C70148DFF8018081888392
:1004300082818A8381818983D0FE02C083818E83F9
:10044000C7014BDFCFBEDF91CF911F910F91FF907E
:10045000EF90DF90CF900895CF92DF92EF92FF92CE
:100460000F931F93CF93DF937C01D62EEA01862F43
:10047000837029F4962F9695969582E002C0962F68
:1004800080E090FF8F5F8701005E1F4F98E0899F9B
:10049000000D111D1124CFB6F894C7010EDFF8012D
:1004A0008081888382818A8381818983D0FE02C092
:1004B00086818B83C70111DFCFBEDF91CF911F9162
:1004C0000F91FF90EF90DF90CF9008951BBEFC013D
:1004D00028ED24BF608308954091CA01E62FF72FCD
:1004E0008093CA0184914093CA0108951F920F928C
:1004F0000FB60F9211248F939F93EF93FF93EFE327
:10050000F0E280819181019680839183FF91EF9148
:100510009F918F910F900FBE0F901F9018951F9273
:100520000F920FB60F921124CF92DF92EF92FF92AB
:100530000F931F932F933F934F935F936F937F93EB
:100540008F939F93AF93BF93EF93FF9340913F207F
:1005500050914020809141209091422048175907A6
:10056000F0F181E0E0E0F4E08283E0914520F09159
:1005700046203097A1F1A0E0B4E018968D919C91AF
:10058000199760E070E0BA0155274427A0E0B0E079
:100590008A019B01082B192B2A2B3B2BC901B8017F
:1005A000009141201091422020E030E09801112775
:1005B0000027C0904320D0904420E12CF12C0C293E
:1005C0001D292E293F29061717072807390730F05C
:1005D000C901B8016F5F7F4F8F4F9F4F0995FF9102
:1005E000EF91BF91AF919F918F917F916F915F91AB
:1005F0004F913F912F911F910F91FF90EF90DF90BE
:10060000CF900F900FBE0F901F9018951F920F92D2
:100610000FB60F9211242F933F934F935F936F93D5
:100620007F938F939F93AF93BF93EF93FF93E0914B
:100630000120F0910220309709F00995FF91EF9188
:10064000BF91AF919F918F917F916F915F914F91EA
:100650003F912F910F900FBE0F901F9018951F92F2
:100660000F920FB60F9211242F933F934F935F93E6
:100670006F937F938F939F93AF93BF93EF93FF936A
:10068000E0910320F0910420309709F00995FF9143
:10069000EF91BF91AF919F918F917F916F915F91FA
:1006A0004F913F912F910F900FBE0F901F90189573
:1006B0001F920F920FB60F9211242F933F934F93D7
:1006C0005F936F937F938F939F93AF93BF93EF93BA
:1006D000FF93E0910520F0910620309709F00995ED
:1006E000FF91EF91BF91AF919F918F917F916F910A
:1006F0005F914F913F912F910F900FBE0F901F90E0
:1007000018951F920F920FB60F9211242F933F93BB
:100710004F935F936F937F938F939F93AF93BF9309
:10072000EF93FF93E0910720F0910820309709F0B4
:100730000995FF91EF91BF91AF919F918F917F911B
:100740006F915F914F913F912F910F900FBE0F903E
:100750001F9018951F920F920FB60F9211242F938E
:100760003F934F935F936F937F938F939F93AF9339
:10077000BF93EF93FF93E0910920F0910A20309707
:1007800009F00995FF91EF91BF91AF919F918F91E2
:100790007F916F915F914F913F912F910F900FBE7D
:1007A0000F901F9018951F920F920FB60F92112461
:1007B0002F933F934F935F936F937F938F939F9369
:1007C000AF93BF93EF93FF93E0910B20F0910C2038
:1007D000309709F00995FF91EF91BF91AF919F91EB
:1007E0008F917F916F915F914F913F912F910F90DA
:1007F0000FBE0F901F9018951F920F920FB60F9279
:1008000011242F933F934F935F936F937F938F9315
:100810009F93AF93BF93EF93FF93E0910D20F091DF
:100820000E20309709F00995FF91EF91BF91AF919C
:100830009F918F917F916F915F914F913F912F91F8
:100840000F900FBE0F901F9018951F920F920FB62A
:100850000F9211242F933F934F935F936F937F9346
:100860008F939F93AF93BF93EF93FF93E0910F20EC
:10087000F0911020309709F00995FF91EF91BF9109
:10088000AF919F918F917F916F915F914F913F9128
:100890002F910F900FBE0F901F9018951F920F92DF
:1008A0000FB60F9211242F933F934F935F936F9343
:1008B0007F938F939F93AF93BF93EF93FF93E091B9
:1008C0001120F0911220309709F00995FF91EF91D6
:1008D000BF91AF919F918F917F916F915F914F9158
:1008E0003F912F910F900FBE0F901F9018951F9260
:1008F0000F920FB60F9211242F933F934F935F9354
:100900006F937F938F939F93AF93BF93EF93FF93D7
:10091000E0911320F0911420309709F00995FF9190
:10092000EF91BF91AF919F918F917F916F915F9167
:100930004F913F912F910F900FBE0F901F901895E0
:100940001F920F920FB60F9211242F933F934F9344
:100950005F936F937F938F939F93AF93BF93EF9327
:10096000FF93E0911520F0911620309709F009953A
:10097000FF91EF91BF91AF919F918F917F916F9177
:100980005F914F913F912F910F900FBE0F901F904D
:1009900018951F920F920FB60F9211242F933F9329
:1009A0004F935F936F937F938F939F93AF93BF9377
:1009B000EF93FF93E0911720F0911820309709F002
:1009C0000995FF91EF91BF91AF919F918F917F9189
:1009D0006F915F914F913F912F910F900FBE0F90AC
:1009E0001F9018951F920F920FB60F9211242F93FC
:1009F0003F934F935F936F937F938F939F93AF93A7
:100A0000BF93EF93FF93E0911920F0911A20309754
:100A100009F00995FF91EF91BF91AF919F918F914F
:100A20007F916F915F914F913F912F910F900FBEEA
:100A30000F901F9018951F920F920FB60F921124CE
:100A40002F933F934F935F936F937F938F939F93D6
:100A5000AF93BF93EF93FF93E0911B20F0911C2085
:100A6000309709F00995FF91EF91BF91AF919F9158
:100A70008F917F916F915F914F913F912F910F9047
:100A80000FBE0F901F9018951F920F920FB60F92E6
:100A900011242F933F934F935F936F937F938F9383
:100AA0009F93AF93BF93EF93FF93E0911D20F0913D
:100AB0001E20309709F00995FF91EF91BF91AF91FA
:100AC0009F918F917F916F915F914F913F912F9166
:100AD0000F900FBE0F901F9018951F920F920FB698
:100AE0000F9211242F933F934F935F936F937F93B4
:100AF0008F939F93AF93BF93EF93FF93E0911F204A
:100B0000F0912020309709F00995FF91EF91BF9166
:100B1000AF919F918F917F916F915F914F913F9195
:100B20002F910F900FBE0F901F9018951F920F924C
:100B30000FB60F9211242F933F934F935F936F93B0
:100B40007F938F939F93AF93BF93EF93FF93E09126
:100B50002120F0912220309709F00995FF91EF9123
:100B6000BF91AF919F918F917F916F915F914F91C5
:100B70003F912F910F900FBE0F901F9018951F92CD
:100B80000F920FB60F9211242F933F934F935F93C1
:100B90006F937F938F939F93AF93BF93EF93FF9345
:100BA000E0912320F0912420309709F00995FF91DE
:100BB000EF91BF91AF919F918F917F916F915F91D5
:100BC0004F913F912F910F900FBE0F901F9018954E
:100BD0001F920F920FB60F9211242F933F934F93B2
:100BE0005F936F937F938F939F93AF93BF93EF9395
:100BF000FF93E0912520F0912620309709F0099588
:100C0000FF91EF91BF91AF919F918F917F916F91E4
:100C10005F914F913F912F910F900FBE0F901F90BA
:100C200018951F920F920FB60F9211242F933F9396
:100C30004F935F936F937F938F939F93AF93BF93E4
:100C4000EF93FF93E0912720F0912820309709F04F
:100C50000995FF91EF91BF91AF919F918F917F91F6
:100C60006F915F914F913F912F910F900FBE0F9019
:100C70001F9018951F920F920FB60F9211242F9369
:100C80003F934F935F936F937F938F939F93AF9314
:100C9000BF93EF93FF93E0912920F0912A203097A2
:100CA00009F00995FF91EF91BF91AF919F918F91BD
:100CB0007F916F915F914F913F912F910F900FBE58
:100CC0000F901F9018951F920F920FB60F9211243C
:100CD0002F933F934F935F936F937F938F939F9344
:100CE000AF93BF93EF93FF93E0912B20F0912C20D3
:100CF000309709F00995FF91EF91BF91AF919F91C6
:100D00008F917F916F915F914F913F912F910F90B4
:100D10000FBE0F901F9018951F920F920FB60F9253
:100D200011242F933F934F935F936F937F938F93F0
:100D30009F93AF93BF93EF93FF93E0912D20F0919A
:100D40002E20309709F00995FF91EF91BF91AF9157
:100D50009F918F917F916F915F914F913F912F91D3
:100D60000F900FBE0F901F9018951F920F920FB605
:100D70000F9211242F933F934F935F936F937F9321
:100D80008F939F93AF93BF93EF93FF93E0912F20A7
:100D9000F0913020309709F00995FF91EF91BF91C4
:100DA000AF919F918F917F916F915F914F913F9103
:100DB0002F910F900FBE0F901F9018951F920F92BA
:100DC0000FB60F9211242F933F934F935F936F931E
:100DD0007F938F939F93AF93BF93EF93FF93E09194
:100DE0003120F0913220309709F00995FF91EF9171
:100DF000BF91AF919F918F917F916F915F914F9133
:100E00003F912F910F900FBE0F901F9018951F923A
:100E10000F920FB60F9211242F933F934F935F932E
:100E20006F937F938F939F93AF93BF93EF93FF93B2
:100E3000E0913320F0913420309709F00995FF912B
:100E4000EF91BF91AF919F918F917F916F915F9142
:100E50004F913F912F910F900FBE0F901F901895BB
:100E6000CF93CFB7F894811528E0920749F461E059
:100E700083E090E00DDA64E083E090E009DA35C0C9
:100E8000803428E0920749F462E083E090E000DAE1
:100E900064E083E090E0FCD928C0811529E0920746
:100EA00049F461E084E090E0F3D964E084E090E00C
:100EB000EFD91BC0803429E0920749F462E084E056
:100EC00090E0E6D964E084E090E0E2D90EC08115BC
:100ED0009A4049F461E085E090E0DAD964E085E089
:100EE00090E0D6D902C0CFBF09C08FB7F894EAE32B
:100EF000F0E290819F5F90838FBFCFBFCF91089525
:100F0000811528E0920729F4609301207093022054
:100F10000895803428E0920729F460930D2070939F
:100F20000E200895811529E0920729F46093152079
:100F3000709316200895803429E0920729F4609375
:100F4000212070932220089581159A4021F4609306
:100F5000292070932A200895CF92DF92EF92FF927A
:100F6000CF93DF93EC016B01E12CF12C60E078E48E
:100F700088EE91E0A701960108D5CA01B9012FEFCB
:100F80003FEF40E050E001D52115310539F481E013
:100F900090E08E839F8321E030E039C0223031051C
:100FA00038F482E090E08E839F8322E030E02FC00F
:100FB0002430310538F483E090E08E839F8324E071
:100FC00030E025C02830310538F484E090E08E838D
:100FD0009F8328E030E01BC02034310538F485E0E1
:100FE00090E08E839F8320E430E011C02F3F3105D5
:100FF00009F038F486E090E08E839F8320E031E0B2
:1010000006C087E090E08E839F8320E034E040E0DC
:1010100050E060E078E488EE91E0B7D4CA01B9010D
:10102000A7019601B2D4288739872436310520F4E8
:101030001E821F8218861986DF91CF91FF90EF9054
:10104000DF90CF9008950F931F93CF93DF93EC0120
:10105000890162307105E1F140F46115710571F0AB
:101060006130710509F072C01EC06330710509F46A
:1010700044C06430710509F069C054C080E098E054
:1010800088839983E0E4F6E0A0819A012150310938
:1010900061E070E0CB0102C0880F991F2A95E2F74A
:1010A0008A2B808353C080E498E088839983E0E4AE
:1010B000F6E0A0819A012D5F3F4F61E070E0CB0127
:1010C00002C0880F991F2A95E2F78A2B80833EC0C1
:1010D00080E099E088839983E0E6F6E0A0819A01B8
:1010E0002150310961E070E0CB0102C0880F991FE7
:1010F0002A95E2F78A2B808329C080E499E08883CF
:101100009983E0E6F6E0A0819A012D5F3F4F61E010
:1011100070E0CB0102C0880F991F2A95E2F78A2B55
:10112000808314C080E09AE088839983E0E8F6E049
:10113000A0819A012150310961E070E0CB0102C029
:10114000880F991F2A95E2F78A2B80834A835B8355
:101150004230510589F020F441305105D9F407C0DF
:101160004330510571F044305105A1F40FC080E1C6
:1011700090E08C839D830EC080E290E08C839D8301
:1011800009C080E490E08C839D8304C080E890E0F7
:101190008C839D838881998163DEE881F9818181D7
:1011A000887F83608183188619861E821F82E8816A
:1011B000F9818081807F8083B801CE01CDDEDF910F
:1011C000CF911F910F910895CF93DF93EC01A885E4
:1011D000B985262F30E0FBD324E630E040E050E034
:1011E000D4D38A819B81E881F981E6FD19C08230E0
:1011F000910569F018F40197F1F406C08330910568
:1012000049F00497C1F409C020AF31AF14C022AF38
:1012100033AF11C024AF35AF0EC026AF37AF0BC010
:101220008130910519F0029731F403C020AF31AF3E
:1012300002C022AF33AF88859985E881F98186A302
:1012400097A38C819D81E881F981E6FD04C091819D
:10125000892B818305C0218180739927822B81830B
:10126000E881F9818081807F9E81892B8083DF9155
:10127000CF91089580E098E0F3DD64EE7BE080E0BC
:1012800098E03EDEE0E0F8E08181887F818380E0C5
:101290009DE786A397A386818C7F86838681816064
:1012A000868378948081807F81608083089528EC94
:1012B00030E041E050E064E070E087E490E2C3DEBB
:1012C00028EC30E042E050E064E070E081E590E23C
:1012D000BACE8F3F2FEF920749F4E0E8F6E0848121
:1012E000846084838481877F848313C0019749F459
:1012F000E0E8F6E084818B7F848384818860848346
:1013000008C0E0E8F6E084818B7F84838481877F56
:10131000848387E490E258CF8F3F2FEF920749F400
:10132000E0EEF7E084818160848384818D7F848313
:1013300013C0019749F4E0EEF7E084818E7F848347
:1013400084818260848308C0E0EEF7E084818E7F30
:10135000848384818D7F848381E590E235CF0F93F0
:101360001F93CF93DF939C0177230CF445C0653620
:101370007105A4F4269FC001279F900D369F900D04
:10138000112464E670E0EED2C901861B970BBC0104
:101390008901C1E0D0E081E090E07DC0CB018556BD
:1013A00091098436910590F464567109269FC00115
:1013B000279F900D369F900D112464E670E0D2D2E5
:1013C0008901C1E0D0E080E090E065C0693C710532
:1013D0000CF45BC0685C7109269FC001279F900DCB
:1013E000369F900D112464E670E0BCD28901C1E003
:1013F000D0E08FEF9FEF4FC06C399FEF79079CF0E3
:10140000269FC001279F900D369F900D112464E602
:1014100070E0A8D28B01020F131FB901C1E0D0E028
:1014200081E090E038C068338FEF7807BCF0442744
:101430005527421B530B6C597F4F469FC001479F56
:10144000900D569F900D112464E670E08BD28B01B5
:10145000B901C0E0D0E081E090E01DC044275527ED
:10146000421B530B68537F4F469FC001479F900D0F
:10147000569F900D112464E670E074D28B01B9017F
:10148000CFEFDFEF81E090E006C08901B901C1E054
:10149000D0E081E090E040DFB801CE011ADFDF91BB
:1014A000CF911F910F9108950F931F93CF93DF93C7
:1014B00000D000D0CDB7DEB78C01AE014F5F5F4FDB
:1014C00061E080E092E00E942C020031110538F0CA
:1014D00019820051000F000F000F0A8307C082E03D
:1014E0008983000F000F000F07600A83AE014F5F72
:1014F0005F4F61E080E092E00E94F30180E092E0C3
:101500000E947C018FB7F894E0E0F2E09081946053
:1015100090838FBF868180FFFDCFE0E0F2E081E025
:10152000868324A135A1822F932F2496CDBFDEBFC1
:10153000DF91CF911F910F9108950F931F93CF9338
:10154000DF9380E090E0B0DFC1E0D0E081319E40E9
:1015500010F4C0E0D0E081E090E0A6DF01E010E010
:1015600081319E4010F400E010E0C130D10529F136
:101570000130110559F438C081E090E095DF01E0B9
:1015800010E081319E4010F400E010E0CD2B29F0F6
:1015900080E2E0E6F6E0858304C080E2E0E6F6E083
:1015A0008683012B29F080E1E0E6F6E0858326C002
:1015B00080E1E0E6F6E0868321C08FEF91EE24E043
:1015C000815090402040E1F700C0000080E090E0B2
:1015D0006BDFC1E0D0E081319E4010F4C0E0D0E08C
:1015E0000130110599F6C8CF8FEF91EE24E08150BC
:1015F00090402040E1F700C00000BECFDF91CF91C6
:101600001F910F910895CF92DF92EF92FF920F9367
:101610001F93CF93DF9380E090E046DF21E030E03E
:1016200081319E4010F420E030E0790181E090E0CB
:101630003BDF21E030E081319E4010F420E030E0DB
:10164000690181E0E816F10409F48BC0213031050D
:1016500061F4A1C081E090E027DF21E030E081313A
:101660009E4010F420E030E06901CAE0D0E000E0E4
:1016700010E082E090E018DF21E030E080319E4011
:1016800010F020E030E0020F131F219791F7E114D2
:10169000F10429F080E2E0E6F6E0858304C080E210
:1016A000E0E6F6E08683C114D10429F080E1E0E6AB
:1016B000F6E0858304C080E1E0E6F6E086830A3048
:1016C000110509F072C0E0E6F6E080E2858380E172
:1016D0008583109237201092382020E030E03EC001
:1016E00081E0C816D104B9F4109237201092382046
:1016F00020E030E033C0E114F104C1F491E0C916F8
:10170000D104B1F481E090E08093372090933820A9
:1017100021E030E023C0CD28B1F48FEF9FEF80931C
:101720003720909338202FEF3FEF18C0EF2871F447
:10173000CD2879F48091372090913820019661F47A
:101740002EEF3FEF0BC02EEF3FEF08C02EEF3FEF25
:1017500005C02EEF3FEF02C022E030E0822F932F32
:101760002AC04FEF81EE94E0415080409040E1F775
:1017700000C0000080E090E097DE21E030E08131A1
:101780009E4010F420E030E0790181E0C816D104D9
:1017900009F06BCF5FCF9FEF21EE44E091502040E6
:1017A0004040E1F700C0000055CF81E0E816F104A9
:1017B00009F0A1CF95CFDF91CF911F910F91FF90AD
:1017C000EF90DF90CF9008951EDF2091352030916B
:1017D0003620232B61F462E370E08CE390E0BFDD00
:1017E00081E090E0809335209093362008958E3FDD
:1017F0002FEF920729F464ED7EEF84E190E0AFCD06
:101800008F3F2FEF920729F468E37FEF84E290E0A7
:10181000A6CD009729F460E070E08AE590E09FCDC6
:101820008130910529F468EC70E084E290E097CD76
:10183000029729F46CE271E084E190E090CD089584
:10184000CF93DF93CDB7DEB72B97CDBFDEBF0E941E
:101850001C010E941D0187E0E0EAF0E08283BE01E6
:101860006F5F7F4F80E092E00E94D001AE01485F41
:101870005F4F61E080E092E00E942C028A819B81B0
:101880009F7890619B83817E8A831C8282E08D8316
:1018900083E0888780E38987BE016F5F7F4F80E0A8
:1018A00092E00E949301AE01485F5F4F61E080E0EB
:1018B00092E00E94F30180E090E0F6DDF8DC8FEF2B
:1018C000E0E8F6E08183E0EEF7E08183E0E6F6E031
:1018D00080E2818380E1818381E0828380858085CD
:1018E000808580FF07C000E616E027DEF8018085CE
:1018F00080FDFBCFE0E6F6E080E285832FEF37EA5C
:1019000091E6215030409040E1F700C0000086830E
:101910002FEF37EA91E6215030409040E1F700C0C8
:10192000000085832FEF37EA91E621503040904048
:10193000E1F700C0000086832FEF37EA91E62150DF
:1019400030409040E1F700C0000085832FEF37EA78
:1019500091E6215030409040E1F700C000008683BE
:1019600089DCFFCF97FB072E16F4009406D077FD95
:1019700008D039D007FC05D03EF4909581959F4F53
:101980000895709561957F4F0895A1E21A2EAA1BC4
:10199000BB1BFD010DC0AA1FBB1FEE1FFF1FA2171F
:1019A000B307E407F50720F0A21BB30BE40BF50B1C
:1019B000661F771F881F991F1A9469F760957095A5
:1019C000809590959B01AC01BD01CF010895A29F28
:1019D000B001B39FC001A39F01D0B29F700D811DC4
:1019E0001124911D0895AA1BBB1B51E107C0AA1F1A
:1019F000BB1FA617B70710F0A61BB70B881F991FB0
:101A00005A95A9F780959095BC01CD010895F89459
:021A1000FFCF06
:00000001FF
